{
  "contractName": "exampleERC721",
  "abi": [
    {
      "constant": false,
      "inputs": [
        {
          "name": "_to",
          "type": "address"
        },
        {
          "name": "_tokenId",
          "type": "uint256"
        }
      ],
      "name": "approve",
      "outputs": [],
      "payable": false,
      "stateMutability": "nonpayable",
      "type": "function"
    },
    {
      "constant": true,
      "inputs": [],
      "name": "totalSupply",
      "outputs": [
        {
          "name": "",
          "type": "uint256"
        }
      ],
      "payable": false,
      "stateMutability": "view",
      "type": "function"
    },
    {
      "constant": true,
      "inputs": [
        {
          "name": "_tokenId",
          "type": "uint256"
        }
      ],
      "name": "approvedFor",
      "outputs": [
        {
          "name": "",
          "type": "address"
        }
      ],
      "payable": false,
      "stateMutability": "view",
      "type": "function"
    },
    {
      "constant": true,
      "inputs": [
        {
          "name": "_owner",
          "type": "address"
        }
      ],
      "name": "tokensOf",
      "outputs": [
        {
          "name": "",
          "type": "uint256[]"
        }
      ],
      "payable": false,
      "stateMutability": "view",
      "type": "function"
    },
    {
      "constant": true,
      "inputs": [
        {
          "name": "_tokenId",
          "type": "uint256"
        }
      ],
      "name": "ownerOf",
      "outputs": [
        {
          "name": "",
          "type": "address"
        }
      ],
      "payable": false,
      "stateMutability": "view",
      "type": "function"
    },
    {
      "constant": true,
      "inputs": [
        {
          "name": "_owner",
          "type": "address"
        }
      ],
      "name": "balanceOf",
      "outputs": [
        {
          "name": "",
          "type": "uint256"
        }
      ],
      "payable": false,
      "stateMutability": "view",
      "type": "function"
    },
    {
      "constant": false,
      "inputs": [
        {
          "name": "_to",
          "type": "address"
        },
        {
          "name": "_tokenId",
          "type": "uint256"
        }
      ],
      "name": "transfer",
      "outputs": [],
      "payable": false,
      "stateMutability": "nonpayable",
      "type": "function"
    },
    {
      "constant": false,
      "inputs": [
        {
          "name": "_tokenId",
          "type": "uint256"
        }
      ],
      "name": "takeOwnership",
      "outputs": [],
      "payable": false,
      "stateMutability": "nonpayable",
      "type": "function"
    },
    {
      "inputs": [],
      "payable": false,
      "stateMutability": "nonpayable",
      "type": "constructor"
    },
    {
      "anonymous": false,
      "inputs": [
        {
          "indexed": false,
          "name": "donor",
          "type": "address"
        }
      ],
      "name": "Donated",
      "type": "event"
    },
    {
      "anonymous": false,
      "inputs": [
        {
          "indexed": true,
          "name": "_from",
          "type": "address"
        },
        {
          "indexed": true,
          "name": "_to",
          "type": "address"
        },
        {
          "indexed": false,
          "name": "_tokenId",
          "type": "uint256"
        }
      ],
      "name": "Transfer",
      "type": "event"
    },
    {
      "anonymous": false,
      "inputs": [
        {
          "indexed": true,
          "name": "_owner",
          "type": "address"
        },
        {
          "indexed": true,
          "name": "_approved",
          "type": "address"
        },
        {
          "indexed": false,
          "name": "_tokenId",
          "type": "uint256"
        }
      ],
      "name": "Approval",
      "type": "event"
    },
    {
      "constant": false,
      "inputs": [],
      "name": "getCreatorAddress",
      "outputs": [
        {
          "name": "",
          "type": "address"
        }
      ],
      "payable": false,
      "stateMutability": "nonpayable",
      "type": "function"
    },
    {
      "constant": false,
      "inputs": [],
      "name": "getCreatorName",
      "outputs": [
        {
          "name": "",
          "type": "string"
        }
      ],
      "payable": false,
      "stateMutability": "nonpayable",
      "type": "function"
    },
    {
      "constant": false,
      "inputs": [],
      "name": "getCreatorBio",
      "outputs": [
        {
          "name": "",
          "type": "string"
        }
      ],
      "payable": false,
      "stateMutability": "nonpayable",
      "type": "function"
    },
    {
      "constant": false,
      "inputs": [],
      "name": "mint",
      "outputs": [],
      "payable": true,
      "stateMutability": "payable",
      "type": "function"
    },
    {
      "constant": true,
      "inputs": [
        {
          "name": "_tokenId",
          "type": "uint256"
        }
      ],
      "name": "tokenMetadata",
      "outputs": [
        {
          "name": "",
          "type": "string"
        }
      ],
      "payable": false,
      "stateMutability": "view",
      "type": "function"
    }
  ],
  "bytecode": "0x6060604052341561000f57600080fd5b33600560006101000a81548173ffffffffffffffffffffffffffffffffffffffff021916908373ffffffffffffffffffffffffffffffffffffffff16021790555061136a8061005f6000396000f3006060604052600436106100c5576000357c0100000000000000000000000000000000000000000000000000000000900463ffffffff168063095ea7b3146100ca5780631249c58b1461010c57806318160ddd146101165780632490c1de1461013f5780632a6dd48f146101cd5780635a3f2672146102305780636352211e146102be5780636914db601461032157806370a08231146103bd5780637a51c3cd1461040a57806394d2d7a714610498578063a9059cbb146104ed578063b2e6ceeb1461052f575b600080fd5b34156100d557600080fd5b61010a600480803573ffffffffffffffffffffffffffffffffffffffff16906020019091908035906020019091905050610552565b005b6101146106e5565b005b341561012157600080fd5b6101296107cf565b6040518082815260200191505060405180910390f35b341561014a57600080fd5b6101526107d8565b6040518080602001828103825283818151815260200191508051906020019080838360005b83811015610192578082015181840152602081019050610177565b50505050905090810190601f1680156101bf5780820380516001836020036101000a031916815260200191505b509250505060405180910390f35b34156101d857600080fd5b6101ee600480803590602001909190505061088e565b604051808273ffffffffffffffffffffffffffffffffffffffff1673ffffffffffffffffffffffffffffffffffffffff16815260200191505060405180910390f35b341561023b57600080fd5b610267600480803573ffffffffffffffffffffffffffffffffffffffff169060200190919050506108cb565b6040518080602001828103825283818151815260200191508051906020019060200280838360005b838110156102aa57808201518184015260208101905061028f565b505050509050019250505060405180910390f35b34156102c957600080fd5b6102df6004808035906020019091905050610968565b604051808273ffffffffffffffffffffffffffffffffffffffff1673ffffffffffffffffffffffffffffffffffffffff16815260200191505060405180910390f35b341561032c57600080fd5b61034260048080359060200190919050506109e6565b6040518080602001828103825283818151815260200191508051906020019080838360005b83811015610382578082015181840152602081019050610367565b50505050905090810190601f1680156103af5780820380516001836020036101000a031916815260200191505b509250505060405180910390f35b34156103c857600080fd5b6103f4600480803573ffffffffffffffffffffffffffffffffffffffff16906020019091905050610a2b565b6040518082815260200191505060405180910390f35b341561041557600080fd5b61041d610a77565b6040518080602001828103825283818151815260200191508051906020019080838360005b8381101561045d578082015181840152602081019050610442565b50505050905090810190601f16801561048a5780820380516001836020036101000a031916815260200191505b509250505060405180910390f35b34156104a357600080fd5b6104ab610aba565b604051808273ffffffffffffffffffffffffffffffffffffffff1673ffffffffffffffffffffffffffffffffffffffff16815260200191505060405180910390f35b34156104f857600080fd5b61052d600480803573ffffffffffffffffffffffffffffffffffffffff16906020019091908035906020019091905050610ae4565b005b341561053a57600080fd5b6105506004808035906020019091905050610b37565b005b6000813373ffffffffffffffffffffffffffffffffffffffff1661057582610968565b73ffffffffffffffffffffffffffffffffffffffff1614151561059757600080fd5b6105a083610968565b91508173ffffffffffffffffffffffffffffffffffffffff168473ffffffffffffffffffffffffffffffffffffffff16141515156105dd57600080fd5b60006105e88461088e565b73ffffffffffffffffffffffffffffffffffffffff16141580610622575060008473ffffffffffffffffffffffffffffffffffffffff1614155b156106df57836002600085815260200190815260200160002060006101000a81548173ffffffffffffffffffffffffffffffffffffffff021916908373ffffffffffffffffffffffffffffffffffffffff1602179055508373ffffffffffffffffffffffffffffffffffffffff168273ffffffffffffffffffffffffffffffffffffffff167f8c5be1e5ebec7d5bd14f71427d1e84f3dd0314c0f7b2291e5b200ac8c7c3b925856040518082815260200191505060405180910390a35b50505050565b6802b5e3af16b188000034101515156106fd57600080fd5b610708336000610b62565b600560009054906101000a900473ffffffffffffffffffffffffffffffffffffffff1673ffffffffffffffffffffffffffffffffffffffff166108fc349081150290604051600060405180830381858888f19350505050151561076a57600080fd5b7fcfa00a08822b6229f7f7b6756172e046099f46a53f39da101f0f65cd8f9832c933604051808273ffffffffffffffffffffffffffffffffffffffff1673ffffffffffffffffffffffffffffffffffffffff16815260200191505060405180910390a1565b60008054905090565b6107e0611299565b60a060405190810160405280607181526020017f4920616d206120746869726420796561722073747564656e742061742074686581526020017f20556e6976657273697479206f66204272697469736820436f6c756d6269612e81526020017f20492061737069726520746f20626520612066757475726520626c6f636b636881526020017f61696e20656e7472657072656e6575722e000000000000000000000000000000815250905090565b60006002600083815260200190815260200160002060009054906101000a900473ffffffffffffffffffffffffffffffffffffffff169050919050565b6108d36112ad565b600360008373ffffffffffffffffffffffffffffffffffffffff1673ffffffffffffffffffffffffffffffffffffffff16815260200190815260200160002080548060200260200160405190810160405280929190818152602001828054801561095c57602002820191906000526020600020905b815481526020019060010190808311610948575b50505050509050919050565b6000806001600084815260200190815260200160002060009054906101000a900473ffffffffffffffffffffffffffffffffffffffff169050600073ffffffffffffffffffffffffffffffffffffffff168173ffffffffffffffffffffffffffffffffffffffff16141515156109dd57600080fd5b80915050919050565b6109ee611299565b6040805190810160405280600f81526020017f74657374497066734164647265737300000000000000000000000000000000008152509050919050565b6000600360008373ffffffffffffffffffffffffffffffffffffffff1673ffffffffffffffffffffffffffffffffffffffff168152602001908152602001600020805490509050919050565b610a7f611299565b6040805190810160405280600981526020017f42696c6c79204c61750000000000000000000000000000000000000000000000815250905090565b6000600560009054906101000a900473ffffffffffffffffffffffffffffffffffffffff16905090565b803373ffffffffffffffffffffffffffffffffffffffff16610b0582610968565b73ffffffffffffffffffffffffffffffffffffffff16141515610b2757600080fd5b610b32338484610bfc565b505050565b610b413382610d45565b1515610b4c57600080fd5b610b5f610b5882610968565b3383610bfc565b50565b600073ffffffffffffffffffffffffffffffffffffffff168273ffffffffffffffffffffffffffffffffffffffff1614151515610b9e57600080fd5b610ba88282610d86565b8173ffffffffffffffffffffffffffffffffffffffff1660007fddf252ad1be2c89b69c2b068fc378daa952ba7f163c4a11628f55a4df523b3ef836040518082815260200191505060405180910390a35050565b600073ffffffffffffffffffffffffffffffffffffffff168273ffffffffffffffffffffffffffffffffffffffff1614151515610c3857600080fd5b610c4181610968565b73ffffffffffffffffffffffffffffffffffffffff168273ffffffffffffffffffffffffffffffffffffffff1614151515610c7b57600080fd5b8273ffffffffffffffffffffffffffffffffffffffff16610c9b82610968565b73ffffffffffffffffffffffffffffffffffffffff16141515610cbd57600080fd5b610cc78382610ef1565b610cd18382610fda565b610cdb8282610d86565b8173ffffffffffffffffffffffffffffffffffffffff168373ffffffffffffffffffffffffffffffffffffffff167fddf252ad1be2c89b69c2b068fc378daa952ba7f163c4a11628f55a4df523b3ef836040518082815260200191505060405180910390a3505050565b60008273ffffffffffffffffffffffffffffffffffffffff16610d678361088e565b73ffffffffffffffffffffffffffffffffffffffff1614905092915050565b60008073ffffffffffffffffffffffffffffffffffffffff166001600084815260200190815260200160002060009054906101000a900473ffffffffffffffffffffffffffffffffffffffff1673ffffffffffffffffffffffffffffffffffffffff16141515610df557600080fd5b826001600084815260200190815260200160002060006101000a81548173ffffffffffffffffffffffffffffffffffffffff021916908373ffffffffffffffffffffffffffffffffffffffff160217905550610e5083610a2b565b9050600360008473ffffffffffffffffffffffffffffffffffffffff1673ffffffffffffffffffffffffffffffffffffffff1681526020019081526020016000208054806001018281610ea391906112c1565b916000526020600020900160008490919091505550806004600084815260200190815260200160002081905550610ee6600160005461126290919063ffffffff16565b600081905550505050565b8173ffffffffffffffffffffffffffffffffffffffff16610f1182610968565b73ffffffffffffffffffffffffffffffffffffffff16141515610f3357600080fd5b60006002600083815260200190815260200160002060006101000a81548173ffffffffffffffffffffffffffffffffffffffff021916908373ffffffffffffffffffffffffffffffffffffffff16021790555060008273ffffffffffffffffffffffffffffffffffffffff167f8c5be1e5ebec7d5bd14f71427d1e84f3dd0314c0f7b2291e5b200ac8c7c3b925836040518082815260200191505060405180910390a35050565b60008060008473ffffffffffffffffffffffffffffffffffffffff16610fff85610968565b73ffffffffffffffffffffffffffffffffffffffff1614151561102157600080fd5b60046000858152602001908152602001600020549250611053600161104587610a2b565b61128090919063ffffffff16565b9150600360008673ffffffffffffffffffffffffffffffffffffffff1673ffffffffffffffffffffffffffffffffffffffff168152602001908152602001600020828154811015156110a157fe5b906000526020600020900154905060006001600086815260200190815260200160002060006101000a81548173ffffffffffffffffffffffffffffffffffffffff021916908373ffffffffffffffffffffffffffffffffffffffff16021790555080600360008773ffffffffffffffffffffffffffffffffffffffff1673ffffffffffffffffffffffffffffffffffffffff1681526020019081526020016000208481548110151561114f57fe5b9060005260206000209001819055506000600360008773ffffffffffffffffffffffffffffffffffffffff1673ffffffffffffffffffffffffffffffffffffffff168152602001908152602001600020838154811015156111ac57fe5b906000526020600020900181905550600360008673ffffffffffffffffffffffffffffffffffffffff1673ffffffffffffffffffffffffffffffffffffffff16815260200190815260200160002080548091906001900361120d91906112ed565b5060006004600086815260200190815260200160002081905550826004600083815260200190815260200160002081905550611255600160005461128090919063ffffffff16565b6000819055505050505050565b600080828401905083811015151561127657fe5b8091505092915050565b600082821115151561128e57fe5b818303905092915050565b602060405190810160405280600081525090565b602060405190810160405280600081525090565b8154818355818115116112e8578183600052602060002091820191016112e79190611319565b5b505050565b815481835581811511611314578183600052602060002091820191016113139190611319565b5b505050565b61133b91905b8082111561133757600081600090555060010161131f565b5090565b905600a165627a7a723058200be22aff0e9b78f9b13e61ec3d2a40fb8a038495ab0a6d69a1dc7db8bd9e2cc80029",
  "source": "pragma solidity ^0.4.17;\n\nimport \"zeppelin-solidity/contracts/token/ERC721/ERC721Token.sol\";\n\n/**\n * The exampleERC721 contract does this and that...\n */\ncontract exampleERC721 is ERC721Token{\n\taddress private creator;\n\tuint256 constant private price = 50 ether;\n\tstring constant private creatorName = \"Billy Lau\";\n\tstring constant private creatorBio = \"I am a third year student at the University of British Columbia. I aspire to be a future blockchain entrepreneur.\";\n\n\tevent Donated(address donor);\n\t\n\t//Constructor\n\tfunction exampleERC721 () {\n\t\tcreator = msg.sender;\n\t}\t\n\n\t//Getters\n\tfunction getCreatorAddress () returns(address) {\n\t\treturn(creator);\n\t}\n\n\tfunction getCreatorName () returns(string) {\n\t\treturn(creatorName);\n\t}\n\n\tfunction getCreatorBio () returns(string) {\n\t\treturn(creatorBio);\n\t}\n\t\n\t//Mint\n\tfunction mint () public payable{\n\t\trequire(msg.value >= price);\n\t\t_mint(msg.sender,0);\n\t\tcreator.transfer(msg.value);\n\t\tDonated(msg.sender);\n\t}\n\t\n\n\n\tfunction tokenMetadata (uint256 _tokenId) constant returns(string) {\n\t\treturn(\"testIpfsAddress\");\n\t}\n\t\n\n}\n\n\n",
  "sourcePath": "/home/linkuri267/Documents/wtc/gratus/contracts/ExampleERC721.sol",
  "compiler": {
    "name": "solc",
    "version": "0.4.19+commit.c4cbbb05.Emscripten.clang"
  },
  "schemaVersion": "1.0.1",
  "updatedAt": "2018-02-17T08:38:12.739Z"
}