{
  "contractName": "ExampleERC721",
  "abi": [
    {
      "constant": false,
      "inputs": [
        {
          "name": "_to",
          "type": "address"
        },
        {
          "name": "_tokenId",
          "type": "uint256"
        }
      ],
      "name": "approve",
      "outputs": [],
      "payable": false,
      "stateMutability": "nonpayable",
      "type": "function"
    },
    {
      "constant": true,
      "inputs": [],
      "name": "totalSupply",
      "outputs": [
        {
          "name": "",
          "type": "uint256"
        }
      ],
      "payable": false,
      "stateMutability": "view",
      "type": "function"
    },
    {
      "constant": true,
      "inputs": [
        {
          "name": "_tokenId",
          "type": "uint256"
        }
      ],
      "name": "approvedFor",
      "outputs": [
        {
          "name": "",
          "type": "address"
        }
      ],
      "payable": false,
      "stateMutability": "view",
      "type": "function"
    },
    {
      "constant": true,
      "inputs": [
        {
          "name": "_owner",
          "type": "address"
        }
      ],
      "name": "tokensOf",
      "outputs": [
        {
          "name": "",
          "type": "uint256[]"
        }
      ],
      "payable": false,
      "stateMutability": "view",
      "type": "function"
    },
    {
      "constant": true,
      "inputs": [
        {
          "name": "_tokenId",
          "type": "uint256"
        }
      ],
      "name": "ownerOf",
      "outputs": [
        {
          "name": "",
          "type": "address"
        }
      ],
      "payable": false,
      "stateMutability": "view",
      "type": "function"
    },
    {
      "constant": true,
      "inputs": [
        {
          "name": "_owner",
          "type": "address"
        }
      ],
      "name": "balanceOf",
      "outputs": [
        {
          "name": "",
          "type": "uint256"
        }
      ],
      "payable": false,
      "stateMutability": "view",
      "type": "function"
    },
    {
      "constant": false,
      "inputs": [
        {
          "name": "_to",
          "type": "address"
        },
        {
          "name": "_tokenId",
          "type": "uint256"
        }
      ],
      "name": "transfer",
      "outputs": [],
      "payable": false,
      "stateMutability": "nonpayable",
      "type": "function"
    },
    {
      "constant": false,
      "inputs": [
        {
          "name": "_tokenId",
          "type": "uint256"
        }
      ],
      "name": "takeOwnership",
      "outputs": [],
      "payable": false,
      "stateMutability": "nonpayable",
      "type": "function"
    },
    {
      "inputs": [],
      "payable": false,
      "stateMutability": "nonpayable",
      "type": "constructor"
    },
    {
      "anonymous": false,
      "inputs": [
        {
          "indexed": false,
          "name": "donor",
          "type": "address"
        }
      ],
      "name": "Donated",
      "type": "event"
    },
    {
      "anonymous": false,
      "inputs": [
        {
          "indexed": true,
          "name": "_from",
          "type": "address"
        },
        {
          "indexed": true,
          "name": "_to",
          "type": "address"
        },
        {
          "indexed": false,
          "name": "_tokenId",
          "type": "uint256"
        }
      ],
      "name": "Transfer",
      "type": "event"
    },
    {
      "anonymous": false,
      "inputs": [
        {
          "indexed": true,
          "name": "_owner",
          "type": "address"
        },
        {
          "indexed": true,
          "name": "_approved",
          "type": "address"
        },
        {
          "indexed": false,
          "name": "_tokenId",
          "type": "uint256"
        }
      ],
      "name": "Approval",
      "type": "event"
    },
    {
      "constant": false,
      "inputs": [],
      "name": "getCreatorAddress",
      "outputs": [
        {
          "name": "",
          "type": "address"
        }
      ],
      "payable": false,
      "stateMutability": "nonpayable",
      "type": "function"
    },
    {
      "constant": false,
      "inputs": [],
      "name": "getCreatorName",
      "outputs": [
        {
          "name": "",
          "type": "bytes32"
        }
      ],
      "payable": false,
      "stateMutability": "nonpayable",
      "type": "function"
    },
    {
      "constant": false,
      "inputs": [],
      "name": "getCreatorBio",
      "outputs": [
        {
          "name": "",
          "type": "bytes32"
        }
      ],
      "payable": false,
      "stateMutability": "nonpayable",
      "type": "function"
    },
    {
      "constant": false,
      "inputs": [],
      "name": "getCreatorDisplayImage",
      "outputs": [
        {
          "name": "",
          "type": "bytes32"
        }
      ],
      "payable": false,
      "stateMutability": "nonpayable",
      "type": "function"
    },
    {
      "constant": false,
      "inputs": [],
      "name": "mint",
      "outputs": [],
      "payable": true,
      "stateMutability": "payable",
      "type": "function"
    },
    {
      "constant": true,
      "inputs": [
        {
          "name": "_tokenId",
          "type": "uint256"
        }
      ],
      "name": "tokenMetadata",
      "outputs": [
        {
          "name": "",
          "type": "string"
        }
      ],
      "payable": false,
      "stateMutability": "view",
      "type": "function"
    }
  ],
  "bytecode": "0x60606040526000600560146101000a81548160ff021916908315150217905550341561002a57600080fd5b33600560006101000a81548173ffffffffffffffffffffffffffffffffffffffff021916908373ffffffffffffffffffffffffffffffffffffffff1602179055506112628061007a6000396000f3006060604052600436106100d0576000357c0100000000000000000000000000000000000000000000000000000000900463ffffffff168063095ea7b3146100d55780631249c58b1461011757806318160ddd146101215780632490c1de1461014a5780632a6dd48f1461017b5780635a3f2672146101de5780636352211e1461026c5780636914db60146102cf5780636ddcbb841461036b57806370a082311461039c5780637a51c3cd146103e957806394d2d7a71461041a578063a9059cbb1461046f578063b2e6ceeb146104b1575b600080fd5b34156100e057600080fd5b610115600480803573ffffffffffffffffffffffffffffffffffffffff169060200190919080359060200190919050506104d4565b005b61011f610667565b005b341561012c57600080fd5b610134610788565b6040518082815260200191505060405180910390f35b341561015557600080fd5b61015d610791565b60405180826000191660001916815260200191505060405180910390f35b341561018657600080fd5b61019c6004808035906020019091905050610799565b604051808273ffffffffffffffffffffffffffffffffffffffff1673ffffffffffffffffffffffffffffffffffffffff16815260200191505060405180910390f35b34156101e957600080fd5b610215600480803573ffffffffffffffffffffffffffffffffffffffff169060200190919050506107d6565b6040518080602001828103825283818151815260200191508051906020019060200280838360005b8381101561025857808201518184015260208101905061023d565b505050509050019250505060405180910390f35b341561027757600080fd5b61028d6004808035906020019091905050610873565b604051808273ffffffffffffffffffffffffffffffffffffffff1673ffffffffffffffffffffffffffffffffffffffff16815260200191505060405180910390f35b34156102da57600080fd5b6102f060048080359060200190919050506108f1565b6040518080602001828103825283818151815260200191508051906020019080838360005b83811015610330578082015181840152602081019050610315565b50505050905090810190601f16801561035d5780820380516001836020036101000a031916815260200191505b509250505060405180910390f35b341561037657600080fd5b61037e610936565b60405180826000191660001916815260200191505060405180910390f35b34156103a757600080fd5b6103d3600480803573ffffffffffffffffffffffffffffffffffffffff1690602001909190505061093e565b6040518082815260200191505060405180910390f35b34156103f457600080fd5b6103fc61098a565b60405180826000191660001916815260200191505060405180910390f35b341561042557600080fd5b61042d6109b2565b604051808273ffffffffffffffffffffffffffffffffffffffff1673ffffffffffffffffffffffffffffffffffffffff16815260200191505060405180910390f35b341561047a57600080fd5b6104af600480803573ffffffffffffffffffffffffffffffffffffffff169060200190919080359060200190919050506109dc565b005b34156104bc57600080fd5b6104d26004808035906020019091905050610a2f565b005b6000813373ffffffffffffffffffffffffffffffffffffffff166104f782610873565b73ffffffffffffffffffffffffffffffffffffffff1614151561051957600080fd5b61052283610873565b91508173ffffffffffffffffffffffffffffffffffffffff168473ffffffffffffffffffffffffffffffffffffffff161415151561055f57600080fd5b600061056a84610799565b73ffffffffffffffffffffffffffffffffffffffff161415806105a4575060008473ffffffffffffffffffffffffffffffffffffffff1614155b1561066157836002600085815260200190815260200160002060006101000a81548173ffffffffffffffffffffffffffffffffffffffff021916908373ffffffffffffffffffffffffffffffffffffffff1602179055508373ffffffffffffffffffffffffffffffffffffffff168273ffffffffffffffffffffffffffffffffffffffff167f8c5be1e5ebec7d5bd14f71427d1e84f3dd0314c0f7b2291e5b200ac8c7c3b925856040518082815260200191505060405180910390a35b50505050565b600560149054906101000a900460ff1615151561068357600080fd5b6802b5e3af16b1880000341015151561069b57600080fd5b6106a6336000610a5a565b600560009054906101000a900473ffffffffffffffffffffffffffffffffffffffff1673ffffffffffffffffffffffffffffffffffffffff166108fc349081150290604051600060405180830381858888f19350505050151561070857600080fd5b7fcfa00a08822b6229f7f7b6756172e046099f46a53f39da101f0f65cd8f9832c933604051808273ffffffffffffffffffffffffffffffffffffffff1673ffffffffffffffffffffffffffffffffffffffff16815260200191505060405180910390a16001600560146101000a81548160ff021916908315150217905550565b60008054905090565b600080905090565b60006002600083815260200190815260200160002060009054906101000a900473ffffffffffffffffffffffffffffffffffffffff169050919050565b6107de611191565b600360008373ffffffffffffffffffffffffffffffffffffffff1673ffffffffffffffffffffffffffffffffffffffff16815260200190815260200160002080548060200260200160405190810160405280929190818152602001828054801561086757602002820191906000526020600020905b815481526020019060010190808311610853575b50505050509050919050565b6000806001600084815260200190815260200160002060009054906101000a900473ffffffffffffffffffffffffffffffffffffffff169050600073ffffffffffffffffffffffffffffffffffffffff168173ffffffffffffffffffffffffffffffffffffffff16141515156108e857600080fd5b80915050919050565b6108f96111a5565b6040805190810160405280600f81526020017f74657374497066734164647265737300000000000000000000000000000000008152509050919050565b600080905090565b6000600360008373ffffffffffffffffffffffffffffffffffffffff1673ffffffffffffffffffffffffffffffffffffffff168152602001908152602001600020805490509050919050565b60007f42696c6c79204c61750000000000000000000000000000000000000000000000905090565b6000600560009054906101000a900473ffffffffffffffffffffffffffffffffffffffff16905090565b803373ffffffffffffffffffffffffffffffffffffffff166109fd82610873565b73ffffffffffffffffffffffffffffffffffffffff16141515610a1f57600080fd5b610a2a338484610af4565b505050565b610a393382610c3d565b1515610a4457600080fd5b610a57610a5082610873565b3383610af4565b50565b600073ffffffffffffffffffffffffffffffffffffffff168273ffffffffffffffffffffffffffffffffffffffff1614151515610a9657600080fd5b610aa08282610c7e565b8173ffffffffffffffffffffffffffffffffffffffff1660007fddf252ad1be2c89b69c2b068fc378daa952ba7f163c4a11628f55a4df523b3ef836040518082815260200191505060405180910390a35050565b600073ffffffffffffffffffffffffffffffffffffffff168273ffffffffffffffffffffffffffffffffffffffff1614151515610b3057600080fd5b610b3981610873565b73ffffffffffffffffffffffffffffffffffffffff168273ffffffffffffffffffffffffffffffffffffffff1614151515610b7357600080fd5b8273ffffffffffffffffffffffffffffffffffffffff16610b9382610873565b73ffffffffffffffffffffffffffffffffffffffff16141515610bb557600080fd5b610bbf8382610de9565b610bc98382610ed2565b610bd38282610c7e565b8173ffffffffffffffffffffffffffffffffffffffff168373ffffffffffffffffffffffffffffffffffffffff167fddf252ad1be2c89b69c2b068fc378daa952ba7f163c4a11628f55a4df523b3ef836040518082815260200191505060405180910390a3505050565b60008273ffffffffffffffffffffffffffffffffffffffff16610c5f83610799565b73ffffffffffffffffffffffffffffffffffffffff1614905092915050565b60008073ffffffffffffffffffffffffffffffffffffffff166001600084815260200190815260200160002060009054906101000a900473ffffffffffffffffffffffffffffffffffffffff1673ffffffffffffffffffffffffffffffffffffffff16141515610ced57600080fd5b826001600084815260200190815260200160002060006101000a81548173ffffffffffffffffffffffffffffffffffffffff021916908373ffffffffffffffffffffffffffffffffffffffff160217905550610d488361093e565b9050600360008473ffffffffffffffffffffffffffffffffffffffff1673ffffffffffffffffffffffffffffffffffffffff1681526020019081526020016000208054806001018281610d9b91906111b9565b916000526020600020900160008490919091505550806004600084815260200190815260200160002081905550610dde600160005461115a90919063ffffffff16565b600081905550505050565b8173ffffffffffffffffffffffffffffffffffffffff16610e0982610873565b73ffffffffffffffffffffffffffffffffffffffff16141515610e2b57600080fd5b60006002600083815260200190815260200160002060006101000a81548173ffffffffffffffffffffffffffffffffffffffff021916908373ffffffffffffffffffffffffffffffffffffffff16021790555060008273ffffffffffffffffffffffffffffffffffffffff167f8c5be1e5ebec7d5bd14f71427d1e84f3dd0314c0f7b2291e5b200ac8c7c3b925836040518082815260200191505060405180910390a35050565b60008060008473ffffffffffffffffffffffffffffffffffffffff16610ef785610873565b73ffffffffffffffffffffffffffffffffffffffff16141515610f1957600080fd5b60046000858152602001908152602001600020549250610f4b6001610f3d8761093e565b61117890919063ffffffff16565b9150600360008673ffffffffffffffffffffffffffffffffffffffff1673ffffffffffffffffffffffffffffffffffffffff16815260200190815260200160002082815481101515610f9957fe5b906000526020600020900154905060006001600086815260200190815260200160002060006101000a81548173ffffffffffffffffffffffffffffffffffffffff021916908373ffffffffffffffffffffffffffffffffffffffff16021790555080600360008773ffffffffffffffffffffffffffffffffffffffff1673ffffffffffffffffffffffffffffffffffffffff1681526020019081526020016000208481548110151561104757fe5b9060005260206000209001819055506000600360008773ffffffffffffffffffffffffffffffffffffffff1673ffffffffffffffffffffffffffffffffffffffff168152602001908152602001600020838154811015156110a457fe5b906000526020600020900181905550600360008673ffffffffffffffffffffffffffffffffffffffff1673ffffffffffffffffffffffffffffffffffffffff16815260200190815260200160002080548091906001900361110591906111e5565b506000600460008681526020019081526020016000208190555082600460008381526020019081526020016000208190555061114d600160005461117890919063ffffffff16565b6000819055505050505050565b600080828401905083811015151561116e57fe5b8091505092915050565b600082821115151561118657fe5b818303905092915050565b602060405190810160405280600081525090565b602060405190810160405280600081525090565b8154818355818115116111e0578183600052602060002091820191016111df9190611211565b5b505050565b81548183558181151161120c5781836000526020600020918201910161120b9190611211565b5b505050565b61123391905b8082111561122f576000816000905550600101611217565b5090565b905600a165627a7a7230582045f35c508b781945b192fe62736c6ece138b1570b9b556df0062d78a2c00da1a0029",
  "source": "pragma solidity ^0.4.18;\n\nimport \"zeppelin-solidity/contracts/token/ERC721/ERC721Token.sol\";\n\n/**\n * The ExampleERC721 contract does this and that...\n */\ncontract ExampleERC721 is ERC721Token{\n\taddress private creator; //require this field in all uploaded contracts\n\tuint256 constant private price = 50 ether;\n\tbytes32 constant private creatorName = \"Billy Lau\";\n\tbytes32 constant private creatorBio = \"\"; //IPFS address\n\tbytes32 constant private creatorDisplayImage = \"\"; //IPFS address\n\n\tbool private donateLimitReached = false;\n\n\tevent Donated(address donor);\n\t\n\t//Constructor\n\tfunction ExampleERC721 () {\n\t\tcreator = msg.sender;\n\t}\t\n\n\t//Getters\n\tfunction getCreatorAddress () public returns(address) {\n\t\treturn(creator);\n\t}\n\n\tfunction getCreatorName () public returns(bytes32) {\n\t\treturn(creatorName);\n\t}\n\n\tfunction getCreatorBio () public returns(bytes32) {\n\t\treturn(creatorBio);\n\t}\n\t\n\tfunction getCreatorDisplayImage () public returns(bytes32) {\n\t\treturn(creatorDisplayImage);\n\t}\n\t\n\t//Mint\n\tfunction mint () public payable{\n\t\trequire(!donateLimitReached); //check if someone has already donated\n\t\trequire(msg.value >= price); //check if donation amount is greater or equal to requested amount\n\t\t_mint(msg.sender,0); //create the 0th token and send it to the donor\n\t\tcreator.transfer(msg.value); //transfer the donation ETH amount to the creator\n\t\tDonated(msg.sender); //fire an event signalling donation has been sucessful\n\t\tdonateLimitReached = true; //flag to prevent multiple donations to the same token\n\t}\n\t\n\n\n\tfunction tokenMetadata (uint256 _tokenId) constant returns(string) {\n\t\treturn(\"testIpfsAddress\");\n\t}\n\t\n\n}\n\n\n",
  "sourcePath": "/home/linkuri267/Documents/wtc/gratus/contracts/ExampleERC721.sol",
  "compiler": {
    "name": "solc",
    "version": "0.4.19+commit.c4cbbb05.Emscripten.clang"
  },
  "schemaVersion": "1.0.1",
  "updatedAt": "2018-02-18T01:31:28.575Z"
}