{
  "contractName": "ExampleERC721",
  "abi": [
    {
      "constant": false,
      "inputs": [
        {
          "name": "_to",
          "type": "address"
        },
        {
          "name": "_tokenId",
          "type": "uint256"
        }
      ],
      "name": "approve",
      "outputs": [],
      "payable": false,
      "stateMutability": "nonpayable",
      "type": "function"
    },
    {
      "constant": true,
      "inputs": [],
      "name": "totalSupply",
      "outputs": [
        {
          "name": "",
          "type": "uint256"
        }
      ],
      "payable": false,
      "stateMutability": "view",
      "type": "function"
    },
    {
      "constant": true,
      "inputs": [
        {
          "name": "_tokenId",
          "type": "uint256"
        }
      ],
      "name": "approvedFor",
      "outputs": [
        {
          "name": "",
          "type": "address"
        }
      ],
      "payable": false,
      "stateMutability": "view",
      "type": "function"
    },
    {
      "constant": true,
      "inputs": [
        {
          "name": "_owner",
          "type": "address"
        }
      ],
      "name": "tokensOf",
      "outputs": [
        {
          "name": "",
          "type": "uint256[]"
        }
      ],
      "payable": false,
      "stateMutability": "view",
      "type": "function"
    },
    {
      "constant": true,
      "inputs": [
        {
          "name": "_tokenId",
          "type": "uint256"
        }
      ],
      "name": "ownerOf",
      "outputs": [
        {
          "name": "",
          "type": "address"
        }
      ],
      "payable": false,
      "stateMutability": "view",
      "type": "function"
    },
    {
      "constant": true,
      "inputs": [
        {
          "name": "_owner",
          "type": "address"
        }
      ],
      "name": "balanceOf",
      "outputs": [
        {
          "name": "",
          "type": "uint256"
        }
      ],
      "payable": false,
      "stateMutability": "view",
      "type": "function"
    },
    {
      "constant": false,
      "inputs": [
        {
          "name": "_to",
          "type": "address"
        },
        {
          "name": "_tokenId",
          "type": "uint256"
        }
      ],
      "name": "transfer",
      "outputs": [],
      "payable": false,
      "stateMutability": "nonpayable",
      "type": "function"
    },
    {
      "constant": false,
      "inputs": [
        {
          "name": "_tokenId",
          "type": "uint256"
        }
      ],
      "name": "takeOwnership",
      "outputs": [],
      "payable": false,
      "stateMutability": "nonpayable",
      "type": "function"
    },
    {
      "inputs": [],
      "payable": false,
      "stateMutability": "nonpayable",
      "type": "constructor"
    },
    {
      "anonymous": false,
      "inputs": [
        {
          "indexed": false,
          "name": "donor",
          "type": "address"
        }
      ],
      "name": "Donated",
      "type": "event"
    },
    {
      "anonymous": false,
      "inputs": [
        {
          "indexed": true,
          "name": "_from",
          "type": "address"
        },
        {
          "indexed": true,
          "name": "_to",
          "type": "address"
        },
        {
          "indexed": false,
          "name": "_tokenId",
          "type": "uint256"
        }
      ],
      "name": "Transfer",
      "type": "event"
    },
    {
      "anonymous": false,
      "inputs": [
        {
          "indexed": true,
          "name": "_owner",
          "type": "address"
        },
        {
          "indexed": true,
          "name": "_approved",
          "type": "address"
        },
        {
          "indexed": false,
          "name": "_tokenId",
          "type": "uint256"
        }
      ],
      "name": "Approval",
      "type": "event"
    },
    {
      "constant": false,
      "inputs": [],
      "name": "getCreatorAddress",
      "outputs": [
        {
          "name": "",
          "type": "address"
        }
      ],
      "payable": false,
      "stateMutability": "nonpayable",
      "type": "function"
    },
    {
      "constant": false,
      "inputs": [],
      "name": "getCreatorName",
      "outputs": [
        {
          "name": "",
          "type": "string"
        }
      ],
      "payable": false,
      "stateMutability": "nonpayable",
      "type": "function"
    },
    {
      "constant": false,
      "inputs": [],
      "name": "getCreatorBio",
      "outputs": [
        {
          "name": "",
          "type": "string"
        }
      ],
      "payable": false,
      "stateMutability": "nonpayable",
      "type": "function"
    },
    {
      "constant": false,
      "inputs": [],
      "name": "getCreatorDisplayImage",
      "outputs": [
        {
          "name": "",
          "type": "string"
        }
      ],
      "payable": false,
      "stateMutability": "nonpayable",
      "type": "function"
    },
    {
      "constant": false,
      "inputs": [],
      "name": "getPrice",
      "outputs": [
        {
          "name": "",
          "type": "uint256"
        }
      ],
      "payable": false,
      "stateMutability": "nonpayable",
      "type": "function"
    },
    {
      "constant": false,
      "inputs": [],
      "name": "mint",
      "outputs": [],
      "payable": true,
      "stateMutability": "payable",
      "type": "function"
    },
    {
      "constant": true,
      "inputs": [
        {
          "name": "_tokenId",
          "type": "uint256"
        }
      ],
      "name": "tokenMetadata",
      "outputs": [
        {
          "name": "",
          "type": "string"
        }
      ],
      "payable": false,
      "stateMutability": "view",
      "type": "function"
    }
  ],
  "bytecode": "0x60606040526000600560146101000a81548160ff021916908315150217905550341561002a57600080fd5b33600560006101000a81548173ffffffffffffffffffffffffffffffffffffffff021916908373ffffffffffffffffffffffffffffffffffffffff1602179055506114058061007a6000396000f3006060604052600436106100db576000357c0100000000000000000000000000000000000000000000000000000000900463ffffffff168063095ea7b3146100e05780631249c58b1461012257806318160ddd1461012c5780632490c1de146101555780632a6dd48f146101e35780635a3f2672146102465780636352211e146102d45780636914db60146103375780636ddcbb84146103d357806370a08231146104615780637a51c3cd146104ae57806394d2d7a71461053c57806398d5fdca14610591578063a9059cbb146105ba578063b2e6ceeb146105fc575b600080fd5b34156100eb57600080fd5b610120600480803573ffffffffffffffffffffffffffffffffffffffff1690602001909190803590602001909190505061061f565b005b61012a6107b2565b005b341561013757600080fd5b61013f6108d3565b6040518082815260200191505060405180910390f35b341561016057600080fd5b6101686108dc565b6040518080602001828103825283818151815260200191508051906020019080838360005b838110156101a857808201518184015260208101905061018d565b50505050905090810190601f1680156101d55780820380516001836020036101000a031916815260200191505b509250505060405180910390f35b34156101ee57600080fd5b61020460048080359060200190919050506108fa565b604051808273ffffffffffffffffffffffffffffffffffffffff1673ffffffffffffffffffffffffffffffffffffffff16815260200191505060405180910390f35b341561025157600080fd5b61027d600480803573ffffffffffffffffffffffffffffffffffffffff16906020019091905050610937565b6040518080602001828103825283818151815260200191508051906020019060200280838360005b838110156102c05780820151818401526020810190506102a5565b505050509050019250505060405180910390f35b34156102df57600080fd5b6102f560048080359060200190919050506109d4565b604051808273ffffffffffffffffffffffffffffffffffffffff1673ffffffffffffffffffffffffffffffffffffffff16815260200191505060405180910390f35b341561034257600080fd5b6103586004808035906020019091905050610a52565b6040518080602001828103825283818151815260200191508051906020019080838360005b8381101561039857808201518184015260208101905061037d565b50505050905090810190601f1680156103c55780820380516001836020036101000a031916815260200191505b509250505060405180910390f35b34156103de57600080fd5b6103e6610a97565b6040518080602001828103825283818151815260200191508051906020019080838360005b8381101561042657808201518184015260208101905061040b565b50505050905090810190601f1680156104535780820380516001836020036101000a031916815260200191505b509250505060405180910390f35b341561046c57600080fd5b610498600480803573ffffffffffffffffffffffffffffffffffffffff16906020019091905050610ab5565b6040518082815260200191505060405180910390f35b34156104b957600080fd5b6104c1610b01565b6040518080602001828103825283818151815260200191508051906020019080838360005b838110156105015780820151818401526020810190506104e6565b50505050905090810190601f16801561052e5780820380516001836020036101000a031916815260200191505b509250505060405180910390f35b341561054757600080fd5b61054f610b44565b604051808273ffffffffffffffffffffffffffffffffffffffff1673ffffffffffffffffffffffffffffffffffffffff16815260200191505060405180910390f35b341561059c57600080fd5b6105a4610b6e565b6040518082815260200191505060405180910390f35b34156105c557600080fd5b6105fa600480803573ffffffffffffffffffffffffffffffffffffffff16906020019091908035906020019091905050610b7f565b005b341561060757600080fd5b61061d6004808035906020019091905050610bd2565b005b6000813373ffffffffffffffffffffffffffffffffffffffff16610642826109d4565b73ffffffffffffffffffffffffffffffffffffffff1614151561066457600080fd5b61066d836109d4565b91508173ffffffffffffffffffffffffffffffffffffffff168473ffffffffffffffffffffffffffffffffffffffff16141515156106aa57600080fd5b60006106b5846108fa565b73ffffffffffffffffffffffffffffffffffffffff161415806106ef575060008473ffffffffffffffffffffffffffffffffffffffff1614155b156107ac57836002600085815260200190815260200160002060006101000a81548173ffffffffffffffffffffffffffffffffffffffff021916908373ffffffffffffffffffffffffffffffffffffffff1602179055508373ffffffffffffffffffffffffffffffffffffffff168273ffffffffffffffffffffffffffffffffffffffff167f8c5be1e5ebec7d5bd14f71427d1e84f3dd0314c0f7b2291e5b200ac8c7c3b925856040518082815260200191505060405180910390a35b50505050565b600560149054906101000a900460ff161515156107ce57600080fd5b6802b5e3af16b188000034101515156107e657600080fd5b6107f1336000610bfd565b600560009054906101000a900473ffffffffffffffffffffffffffffffffffffffff1673ffffffffffffffffffffffffffffffffffffffff166108fc349081150290604051600060405180830381858888f19350505050151561085357600080fd5b7fcfa00a08822b6229f7f7b6756172e046099f46a53f39da101f0f65cd8f9832c933604051808273ffffffffffffffffffffffffffffffffffffffff1673ffffffffffffffffffffffffffffffffffffffff16815260200191505060405180910390a16001600560146101000a81548160ff021916908315150217905550565b60008054905090565b6108e4611334565b6020604051908101604052806000815250905090565b60006002600083815260200190815260200160002060009054906101000a900473ffffffffffffffffffffffffffffffffffffffff169050919050565b61093f611348565b600360008373ffffffffffffffffffffffffffffffffffffffff1673ffffffffffffffffffffffffffffffffffffffff1681526020019081526020016000208054806020026020016040519081016040528092919081815260200182805480156109c857602002820191906000526020600020905b8154815260200190600101908083116109b4575b50505050509050919050565b6000806001600084815260200190815260200160002060009054906101000a900473ffffffffffffffffffffffffffffffffffffffff169050600073ffffffffffffffffffffffffffffffffffffffff168173ffffffffffffffffffffffffffffffffffffffff1614151515610a4957600080fd5b80915050919050565b610a5a611334565b6040805190810160405280600f81526020017f74657374497066734164647265737300000000000000000000000000000000008152509050919050565b610a9f611334565b6020604051908101604052806000815250905090565b6000600360008373ffffffffffffffffffffffffffffffffffffffff1673ffffffffffffffffffffffffffffffffffffffff168152602001908152602001600020805490509050919050565b610b09611334565b6040805190810160405280600981526020017f42696c6c79204c61750000000000000000000000000000000000000000000000815250905090565b6000600560009054906101000a900473ffffffffffffffffffffffffffffffffffffffff16905090565b60006802b5e3af16b1880000905090565b803373ffffffffffffffffffffffffffffffffffffffff16610ba0826109d4565b73ffffffffffffffffffffffffffffffffffffffff16141515610bc257600080fd5b610bcd338484610c97565b505050565b610bdc3382610de0565b1515610be757600080fd5b610bfa610bf3826109d4565b3383610c97565b50565b600073ffffffffffffffffffffffffffffffffffffffff168273ffffffffffffffffffffffffffffffffffffffff1614151515610c3957600080fd5b610c438282610e21565b8173ffffffffffffffffffffffffffffffffffffffff1660007fddf252ad1be2c89b69c2b068fc378daa952ba7f163c4a11628f55a4df523b3ef836040518082815260200191505060405180910390a35050565b600073ffffffffffffffffffffffffffffffffffffffff168273ffffffffffffffffffffffffffffffffffffffff1614151515610cd357600080fd5b610cdc816109d4565b73ffffffffffffffffffffffffffffffffffffffff168273ffffffffffffffffffffffffffffffffffffffff1614151515610d1657600080fd5b8273ffffffffffffffffffffffffffffffffffffffff16610d36826109d4565b73ffffffffffffffffffffffffffffffffffffffff16141515610d5857600080fd5b610d628382610f8c565b610d6c8382611075565b610d768282610e21565b8173ffffffffffffffffffffffffffffffffffffffff168373ffffffffffffffffffffffffffffffffffffffff167fddf252ad1be2c89b69c2b068fc378daa952ba7f163c4a11628f55a4df523b3ef836040518082815260200191505060405180910390a3505050565b60008273ffffffffffffffffffffffffffffffffffffffff16610e02836108fa565b73ffffffffffffffffffffffffffffffffffffffff1614905092915050565b60008073ffffffffffffffffffffffffffffffffffffffff166001600084815260200190815260200160002060009054906101000a900473ffffffffffffffffffffffffffffffffffffffff1673ffffffffffffffffffffffffffffffffffffffff16141515610e9057600080fd5b826001600084815260200190815260200160002060006101000a81548173ffffffffffffffffffffffffffffffffffffffff021916908373ffffffffffffffffffffffffffffffffffffffff160217905550610eeb83610ab5565b9050600360008473ffffffffffffffffffffffffffffffffffffffff1673ffffffffffffffffffffffffffffffffffffffff1681526020019081526020016000208054806001018281610f3e919061135c565b916000526020600020900160008490919091505550806004600084815260200190815260200160002081905550610f8160016000546112fd90919063ffffffff16565b600081905550505050565b8173ffffffffffffffffffffffffffffffffffffffff16610fac826109d4565b73ffffffffffffffffffffffffffffffffffffffff16141515610fce57600080fd5b60006002600083815260200190815260200160002060006101000a81548173ffffffffffffffffffffffffffffffffffffffff021916908373ffffffffffffffffffffffffffffffffffffffff16021790555060008273ffffffffffffffffffffffffffffffffffffffff167f8c5be1e5ebec7d5bd14f71427d1e84f3dd0314c0f7b2291e5b200ac8c7c3b925836040518082815260200191505060405180910390a35050565b60008060008473ffffffffffffffffffffffffffffffffffffffff1661109a856109d4565b73ffffffffffffffffffffffffffffffffffffffff161415156110bc57600080fd5b600460008581526020019081526020016000205492506110ee60016110e087610ab5565b61131b90919063ffffffff16565b9150600360008673ffffffffffffffffffffffffffffffffffffffff1673ffffffffffffffffffffffffffffffffffffffff1681526020019081526020016000208281548110151561113c57fe5b906000526020600020900154905060006001600086815260200190815260200160002060006101000a81548173ffffffffffffffffffffffffffffffffffffffff021916908373ffffffffffffffffffffffffffffffffffffffff16021790555080600360008773ffffffffffffffffffffffffffffffffffffffff1673ffffffffffffffffffffffffffffffffffffffff168152602001908152602001600020848154811015156111ea57fe5b9060005260206000209001819055506000600360008773ffffffffffffffffffffffffffffffffffffffff1673ffffffffffffffffffffffffffffffffffffffff1681526020019081526020016000208381548110151561124757fe5b906000526020600020900181905550600360008673ffffffffffffffffffffffffffffffffffffffff1673ffffffffffffffffffffffffffffffffffffffff1681526020019081526020016000208054809190600190036112a89190611388565b50600060046000868152602001908152602001600020819055508260046000838152602001908152602001600020819055506112f0600160005461131b90919063ffffffff16565b6000819055505050505050565b600080828401905083811015151561131157fe5b8091505092915050565b600082821115151561132957fe5b818303905092915050565b602060405190810160405280600081525090565b602060405190810160405280600081525090565b8154818355818115116113835781836000526020600020918201910161138291906113b4565b5b505050565b8154818355818115116113af578183600052602060002091820191016113ae91906113b4565b5b505050565b6113d691905b808211156113d25760008160009055506001016113ba565b5090565b905600a165627a7a7230582081ca58bd35e6f7cde37cb28c020de96ceac8f72245df93463309b4a53e62b2490029",
  "source": "pragma solidity ^0.4.18;\n\nimport \"zeppelin-solidity/contracts/token/ERC721/ERC721Token.sol\";\n\n/**\n * The ExampleERC721 contract does this and that...\n */\ncontract ExampleERC721 is ERC721Token{\n\taddress private creator; //require this field in all uploaded contracts\n\tuint256 constant private price = 50 ether;\n\tstring constant private creatorName = \"Billy Lau\";\n\tstring constant private creatorBio = \"\"; //IPFS address\n\tstring constant private creatorDisplayImage = \"\"; //IPFS address\n\n\tbool private donateLimitReached = false;\n\n\tevent Donated(address donor);\n\t\n\t//Constructor\n\tfunction ExampleERC721 () {\n\t\tcreator = msg.sender;\n\t}\t\n\n\t//Getters\n\tfunction getCreatorAddress () public returns(address) {\n\t\treturn(creator);\n\t}\n\n\tfunction getCreatorName () public returns(string) {\n\t\treturn(creatorName);\n\t}\n\n\tfunction getCreatorBio () public returns(string) {\n\t\treturn(creatorBio);\n\t}\n\t\n\tfunction getCreatorDisplayImage () public returns(string) {\n\t\treturn(creatorDisplayImage);\n\t}\n\n\tfunction getPrice() public returns(uint256){\n\t\treturn(price);\n\t}\n\n\t// function testFlag () returns(string) {\n\t// \tif(donateLimitReached){\n\t// \t\treturn(\"yes\");\n\t// \t}\n\t// \telse{\n\t// \t\treturn(\"no\");\n\t// \t}\n\t// }\n\t\n\t\n\t//Mint\n\tfunction mint () public payable{\n\t\trequire(!donateLimitReached); //check if someone has already donated\n\t\trequire(msg.value >= price); //check if donation amount is greater or equal to requested amount\n\t\t_mint(msg.sender,0); //create the 0th token and send it to the donor\n\t\tcreator.transfer(msg.value); //transfer the donation ETH amount to the creator\n\t\tDonated(msg.sender); //fire an event signalling donation has been sucessful\n\t\tdonateLimitReached = true; //flag to prevent multiple donations to the same token\n\t}\n\t\n\n\n\tfunction tokenMetadata (uint256 _tokenId) constant returns(string) {\n\t\treturn(\"testIpfsAddress\");\n\t}\n\t\n\n}\n\n\n",
  "sourcePath": "/home/linkuri267/Documents/wtc/gratus/contracts/ExampleERC721.sol",
  "compiler": {
    "name": "solc",
    "version": "0.4.19+commit.c4cbbb05.Emscripten.clang"
  },
  "schemaVersion": "1.0.1",
  "updatedAt": "2018-02-18T19:05:24.841Z"
}