{
  "contractName": "main",
  "abi": [
    {
      "constant": true,
      "inputs": [
        {
          "name": "",
          "type": "uint256"
        }
      ],
      "name": "donors",
      "outputs": [
        {
          "name": "walletAddr",
          "type": "address"
        },
        {
          "name": "amountDonated",
          "type": "uint256"
        }
      ],
      "payable": false,
      "stateMutability": "view",
      "type": "function"
    },
    {
      "constant": true,
      "inputs": [],
      "name": "seedHash",
      "outputs": [
        {
          "name": "",
          "type": "bytes32"
        }
      ],
      "payable": false,
      "stateMutability": "view",
      "type": "function"
    },
    {
      "constant": true,
      "inputs": [
        {
          "name": "",
          "type": "uint256"
        }
      ],
      "name": "creators",
      "outputs": [
        {
          "name": "walletAddr",
          "type": "address"
        },
        {
          "name": "hasContract",
          "type": "bool"
        },
        {
          "name": "contractCount",
          "type": "uint256"
        }
      ],
      "payable": false,
      "stateMutability": "view",
      "type": "function"
    },
    {
      "inputs": [],
      "payable": false,
      "stateMutability": "nonpayable",
      "type": "constructor"
    },
    {
      "constant": false,
      "inputs": [
        {
          "name": "creatorAddress",
          "type": "address"
        }
      ],
      "name": "getContractFromCreator",
      "outputs": [
        {
          "name": "",
          "type": "address[]"
        }
      ],
      "payable": false,
      "stateMutability": "nonpayable",
      "type": "function"
    },
    {
      "constant": false,
      "inputs": [
        {
          "name": "contractAddress",
          "type": "address"
        },
        {
          "name": "ipfsHashSrc",
          "type": "string"
        },
        {
          "name": "ipfsHashAbi",
          "type": "string"
        }
      ],
      "name": "submitContract",
      "outputs": [],
      "payable": false,
      "stateMutability": "nonpayable",
      "type": "function"
    },
    {
      "constant": false,
      "inputs": [
        {
          "name": "n",
          "type": "uint256"
        }
      ],
      "name": "getRandomContractAddress",
      "outputs": [
        {
          "name": "",
          "type": "address[]"
        }
      ],
      "payable": false,
      "stateMutability": "nonpayable",
      "type": "function"
    },
    {
      "constant": false,
      "inputs": [
        {
          "name": "contractAddr",
          "type": "address"
        }
      ],
      "name": "getSourceHashFromContract",
      "outputs": [
        {
          "name": "",
          "type": "string"
        }
      ],
      "payable": false,
      "stateMutability": "nonpayable",
      "type": "function"
    },
    {
      "constant": false,
      "inputs": [
        {
          "name": "contractAddr",
          "type": "address"
        }
      ],
      "name": "getAbiHashFromContract",
      "outputs": [
        {
          "name": "",
          "type": "string"
        }
      ],
      "payable": false,
      "stateMutability": "nonpayable",
      "type": "function"
    }
  ],
  "bytecode": "0x6060604052341561000f57600080fd5b60006008819055506000600981905550600143034060078160001916905550611bf18061003d6000396000f30060606040526004361061008e576000357c0100000000000000000000000000000000000000000000000000000000900463ffffffff1680631f3fb3501461009357806348718516146101525780634abfa163146101e05780637c0bc41d1461024a578063c2b373a7146102c2578063cd53d08e146102f3578063cf69b9a814610368578063ed119d711461041a575b600080fd5b341561009e57600080fd5b610150600480803573ffffffffffffffffffffffffffffffffffffffff1690602001909190803590602001908201803590602001908080601f0160208091040260200160405190810160405280939291908181526020018383808284378201915050505050509190803590602001908201803590602001908080601f016020809104026020016040519081016040528093929190818152602001838380828437820191505050505050919050506104cc565b005b341561015d57600080fd5b610189600480803573ffffffffffffffffffffffffffffffffffffffff16906020019091905050610eea565b6040518080602001828103825283818151815260200191508051906020019060200280838360005b838110156101cc5780820151818401526020810190506101b1565b505050509050019250505060405180910390f35b34156101eb57600080fd5b6102016004808035906020019091905050611117565b604051808373ffffffffffffffffffffffffffffffffffffffff1673ffffffffffffffffffffffffffffffffffffffff1681526020018281526020019250505060405180910390f35b341561025557600080fd5b61026b600480803590602001909190505061116a565b6040518080602001828103825283818151815260200191508051906020019060200280838360005b838110156102ae578082015181840152602081019050610293565b505050509050019250505060405180910390f35b34156102cd57600080fd5b6102d5611535565b60405180826000191660001916815260200191505060405180910390f35b34156102fe57600080fd5b610314600480803590602001909190505061153b565b604051808473ffffffffffffffffffffffffffffffffffffffff1673ffffffffffffffffffffffffffffffffffffffff16815260200183151515158152602001828152602001935050505060405180910390f35b341561037357600080fd5b61039f600480803573ffffffffffffffffffffffffffffffffffffffff169060200190919050506115a1565b6040518080602001828103825283818151815260200191508051906020019080838360005b838110156103df5780820151818401526020810190506103c4565b50505050905090810190601f16801561040c5780820380516001836020036101000a031916815260200191505b509250505060405180910390f35b341561042557600080fd5b610451600480803573ffffffffffffffffffffffffffffffffffffffff169060200190919050506116e3565b6040518080602001828103825283818151815260200191508051906020019080838360005b83811015610491578082015181840152602081019050610476565b50505050905090810190601f1680156104be5780820380516001836020036101000a031916815260200191505b509250505060405180910390f35b6000808491508173ffffffffffffffffffffffffffffffffffffffff166394d2d7a76000604051602001526040518163ffffffff167c0100000000000000000000000000000000000000000000000000000000028152600401602060405180830381600087803b151561053e57600080fd5b6102c65a03f1151561054f57600080fd5b5050506040518051905090503373ffffffffffffffffffffffffffffffffffffffff168173ffffffffffffffffffffffffffffffffffffffff1614151561059557600080fd5b600260008273ffffffffffffffffffffffffffffffffffffffff1673ffffffffffffffffffffffffffffffffffffffff16815260200190815260200160002060040160009054906101000a900460ff161515610ad75780600260008373ffffffffffffffffffffffffffffffffffffffff1673ffffffffffffffffffffffffffffffffffffffff16815260200190815260200160002060000160006101000a81548173ffffffffffffffffffffffffffffffffffffffff021916908373ffffffffffffffffffffffffffffffffffffffff160217905550600260008273ffffffffffffffffffffffffffffffffffffffff1673ffffffffffffffffffffffffffffffffffffffff16815260200190815260200160002060010180548060010182816106c091906118a0565b9160005260206000209001600087909190916101000a81548173ffffffffffffffffffffffffffffffffffffffff021916908373ffffffffffffffffffffffffffffffffffffffff16021790555050600260008273ffffffffffffffffffffffffffffffffffffffff1673ffffffffffffffffffffffffffffffffffffffff168152602001908152602001600020600201805480600101828161076391906118cc565b9160005260206000209001600086909190915090805190602001906107899291906118f8565b5050600260008273ffffffffffffffffffffffffffffffffffffffff1673ffffffffffffffffffffffffffffffffffffffff16815260200190815260200160002060030180548060010182816107df91906118cc565b9160005260206000209001600085909190915090805190602001906108059291906118f8565b50506001600260008373ffffffffffffffffffffffffffffffffffffffff1673ffffffffffffffffffffffffffffffffffffffff16815260200190815260200160002060040160006101000a81548160ff021916908315150217905550600260008273ffffffffffffffffffffffffffffffffffffffff1673ffffffffffffffffffffffffffffffffffffffff16815260200190815260200160002060050160008154809291906001019190505550600960008154809291906001019190505550600260008273ffffffffffffffffffffffffffffffffffffffff1673ffffffffffffffffffffffffffffffffffffffff168152602001908152602001600020600360008773ffffffffffffffffffffffffffffffffffffffff1673ffffffffffffffffffffffffffffffffffffffff1681526020019081526020016000206000820160009054906101000a900473ffffffffffffffffffffffffffffffffffffffff168160000160006101000a81548173ffffffffffffffffffffffffffffffffffffffff021916908373ffffffffffffffffffffffffffffffffffffffff16021790555060018201816001019080546109c1929190611978565b5060028201816002019080546109d89291906119ca565b5060038201816003019080546109ef9291906119ca565b506004820160009054906101000a900460ff168160040160006101000a81548160ff0219169083151502179055506005820154816005015590505083600660008773ffffffffffffffffffffffffffffffffffffffff1673ffffffffffffffffffffffffffffffffffffffff1681526020019081526020016000209080519060200190610a7d9291906118f8565b5082600560008773ffffffffffffffffffffffffffffffffffffffff1673ffffffffffffffffffffffffffffffffffffffff1681526020019081526020016000209080519060200190610ad19291906118f8565b50610ed1565b600260008273ffffffffffffffffffffffffffffffffffffffff1673ffffffffffffffffffffffffffffffffffffffff1681526020019081526020016000206001018054806001018281610b2b91906118a0565b9160005260206000209001600087909190916101000a81548173ffffffffffffffffffffffffffffffffffffffff021916908373ffffffffffffffffffffffffffffffffffffffff16021790555050600260008273ffffffffffffffffffffffffffffffffffffffff1673ffffffffffffffffffffffffffffffffffffffff1681526020019081526020016000206002018054806001018281610bce91906118cc565b916000526020600020900160008690919091509080519060200190610bf49291906118f8565b5050600260008273ffffffffffffffffffffffffffffffffffffffff1673ffffffffffffffffffffffffffffffffffffffff1681526020019081526020016000206003018054806001018281610c4a91906118cc565b916000526020600020900160008590919091509080519060200190610c709291906118f8565b5050600260008273ffffffffffffffffffffffffffffffffffffffff1673ffffffffffffffffffffffffffffffffffffffff16815260200190815260200160002060050160008154809291906001019190505550600260008273ffffffffffffffffffffffffffffffffffffffff1673ffffffffffffffffffffffffffffffffffffffff168152602001908152602001600020600360008773ffffffffffffffffffffffffffffffffffffffff1673ffffffffffffffffffffffffffffffffffffffff1681526020019081526020016000206000820160009054906101000a900473ffffffffffffffffffffffffffffffffffffffff168160000160006101000a81548173ffffffffffffffffffffffffffffffffffffffff021916908373ffffffffffffffffffffffffffffffffffffffff1602179055506001820181600101908054610dbf929190611978565b506002820181600201908054610dd69291906119ca565b506003820181600301908054610ded9291906119ca565b506004820160009054906101000a900460ff168160040160006101000a81548160ff0219169083151502179055506005820154816005015590505083600660008773ffffffffffffffffffffffffffffffffffffffff1673ffffffffffffffffffffffffffffffffffffffff1681526020019081526020016000209080519060200190610e7b9291906118f8565b5082600560008773ffffffffffffffffffffffffffffffffffffffff1673ffffffffffffffffffffffffffffffffffffffff1681526020019081526020016000209080519060200190610ecf9291906118f8565b505b6008600081548092919060010191905055505050505050565b610ef2611a3a565b600080600260008573ffffffffffffffffffffffffffffffffffffffff1673ffffffffffffffffffffffffffffffffffffffff16815260200190815260200160002060040160009054906101000a900460ff161515610f5057600080fd5b600090505b600260008573ffffffffffffffffffffffffffffffffffffffff1673ffffffffffffffffffffffffffffffffffffffff1681526020019081526020016000206005015481101561108857818054806001018281610fb291906118a0565b91600052602060002090016000600260008873ffffffffffffffffffffffffffffffffffffffff1673ffffffffffffffffffffffffffffffffffffffff1681526020019081526020016000206001018481548110151561100e57fe5b906000526020600020900160009054906101000a900473ffffffffffffffffffffffffffffffffffffffff16909190916101000a81548173ffffffffffffffffffffffffffffffffffffffff021916908373ffffffffffffffffffffffffffffffffffffffff160217905550508080600101915050610f55565b8180548060200260200160405190810160405280929190818152602001828054801561110957602002820191906000526020600020905b8160009054906101000a900473ffffffffffffffffffffffffffffffffffffffff1673ffffffffffffffffffffffffffffffffffffffff16815260200190600101908083116110bf575b505050505092505050919050565b60018181548110151561112657fe5b90600052602060002090600202016000915090508060000160009054906101000a900473ffffffffffffffffffffffffffffffffffffffff16908060010154905082565b611172611a3a565b60008060008060008060008095508860095410151561139b578896505b86861015611396576111a76000600160095403611825565b94506000898154811015156111b857fe5b906000526020600020906006020191506111d760008360050154611825565b945060001515600460008460000160009054906101000a900473ffffffffffffffffffffffffffffffffffffffff1673ffffffffffffffffffffffffffffffffffffffff1673ffffffffffffffffffffffffffffffffffffffff16815260200190815260200160002060009054906101000a900460ff1615151415611391578160040160009054906101000a900460ff16156113905782805480600101828161128091906118a0565b91600052602060002090016000846001018881548110151561129e57fe5b906000526020600020900160009054906101000a900473ffffffffffffffffffffffffffffffffffffffff16909190916101000a81548173ffffffffffffffffffffffffffffffffffffffff021916908373ffffffffffffffffffffffffffffffffffffffff1602179055505085806001019650506001600460008460000160009054906101000a900473ffffffffffffffffffffffffffffffffffffffff1673ffffffffffffffffffffffffffffffffffffffff1673ffffffffffffffffffffffffffffffffffffffff16815260200190815260200160002060006101000a81548160ff0219169083151502179055505b5b61118f565b6114a1565b6009549650600090505b868110156114a0576000818154811015156113bc57fe5b906000526020600020906006020191508160040160009054906101000a900460ff1615611493576113f260008360050154611825565b945082805480600101828161140791906118a0565b91600052602060002090016000846001018881548110151561142557fe5b906000526020600020900160009054906101000a900473ffffffffffffffffffffffffffffffffffffffff16909190916101000a81548173ffffffffffffffffffffffffffffffffffffffff021916908373ffffffffffffffffffffffffffffffffffffffff160217905550505b80806001019150506113a5565b5b8280548060200260200160405190810160405280929190818152602001828054801561152257602002820191906000526020600020905b8160009054906101000a900473ffffffffffffffffffffffffffffffffffffffff1673ffffffffffffffffffffffffffffffffffffffff16815260200190600101908083116114d8575b5050505050975050505050505050919050565b60075481565b60008181548110151561154a57fe5b90600052602060002090600602016000915090508060000160009054906101000a900473ffffffffffffffffffffffffffffffffffffffff16908060040160009054906101000a900460ff16908060050154905083565b6115a9611a4e565b600360008373ffffffffffffffffffffffffffffffffffffffff1673ffffffffffffffffffffffffffffffffffffffff16815260200190815260200160002060040160009054906101000a900460ff16151561160457600080fd5b600660008373ffffffffffffffffffffffffffffffffffffffff1673ffffffffffffffffffffffffffffffffffffffff1681526020019081526020016000208054600181600116156101000203166002900480601f0160208091040260200160405190810160405280929190818152602001828054600181600116156101000203166002900480156116d75780601f106116ac576101008083540402835291602001916116d7565b820191906000526020600020905b8154815290600101906020018083116116ba57829003601f168201915b50505050509050919050565b6116eb611a4e565b600360008373ffffffffffffffffffffffffffffffffffffffff1673ffffffffffffffffffffffffffffffffffffffff16815260200190815260200160002060040160009054906101000a900460ff16151561174657600080fd5b600560008373ffffffffffffffffffffffffffffffffffffffff1673ffffffffffffffffffffffffffffffffffffffff1681526020019081526020016000208054600181600116156101000203166002900480601f0160208091040260200160405190810160405280929190818152602001828054600181600116156101000203166002900480156118195780601f106117ee57610100808354040283529160200191611819565b820191906000526020600020905b8154815290600101906020018083116117fc57829003601f168201915b50505050509050919050565b60008060026007546001900481151561183a57fe5b04905042810190506001848585036002846000604051602001526040518082815260200191505060206040518083038160008661646e5a03f1151561187e57600080fd5b5050604051805190506001900481151561189457fe5b06010191505092915050565b8154818355818115116118c7578183600052602060002091820191016118c69190611a62565b5b505050565b8154818355818115116118f3578183600052602060002091820191016118f29190611a87565b5b505050565b828054600181600116156101000203166002900490600052602060002090601f016020900481019282601f1061193957805160ff1916838001178555611967565b82800160010185558215611967579182015b8281111561196657825182559160200191906001019061194b565b5b5090506119749190611a62565b5090565b8280548282559060005260206000209081019282156119b95760005260206000209182015b828111156119b857825482559160010191906001019061199d565b5b5090506119c69190611ab3565b5090565b828054828255906000526020600020908101928215611a295760005260206000209182015b82811115611a285782829080546001816001161561010002031660029004611a18929190611af6565b50916001019190600101906119ef565b5b509050611a369190611a87565b5090565b602060405190810160405280600081525090565b602060405190810160405280600081525090565b611a8491905b80821115611a80576000816000905550600101611a68565b5090565b90565b611ab091905b80821115611aac5760008181611aa39190611b7d565b50600101611a8d565b5090565b90565b611af391905b80821115611aef57600081816101000a81549073ffffffffffffffffffffffffffffffffffffffff021916905550600101611ab9565b5090565b90565b828054600181600116156101000203166002900490600052602060002090601f016020900481019282601f10611b2f5780548555611b6c565b82800160010185558215611b6c57600052602060002091601f016020900482015b82811115611b6b578254825591600101919060010190611b50565b5b509050611b799190611a62565b5090565b50805460018160011615610100020316600290046000825580601f10611ba35750611bc2565b601f016020900490600052602060002090810190611bc19190611a62565b5b505600a165627a7a72305820a733f9b7eb3f607f80c7e58a50f6e95b022c8553072ba9026be88b1b8ca714530029",
  "source": "pragma solidity ^0.4.17;\n\n/**\n * The main contract does this and that...\n */\ncontract main {\n\n\tstruct Creator{\n\t\taddress walletAddr;\n\t\taddress[] contractAddr; //Addresses of contracts created by this creator\n\t\tstring[] src; //IPFS addresses for contract source codes\n\t\tstring[] abi;\n\t\tbool hasContract;\n\t\tuint256 contractCount; //Number of contracts created by this creator\n\t}\n\n\tstruct Donor {\n\t\taddress walletAddr;\n\t\tuint amountDonated;\n\t}\n\n\tCreator[] public creators; //array of all creators \n\tDonor[] public donors; //array of all donors\n\t\n\n\tmapping (address => Creator) creatorAddressToCreator;\n\tmapping (address => Creator) contractAddressToCreator;\n\n\tmapping (address => bool) creatorAddressToIncludedFlag; //Flags for preventing duplicate random addresses \n\n\tmapping (address => string) contractAddressToAbi;\n\tmapping (address => string) contractAddressToSrc;\n\t\n\t\n\t\n\t// mapping (address => address) private creatorToContract;\n\t// mapping (address => string) private creatorToSrc;\n\t\n\t// mapping (address => string) private creatorToName;\n\t// mapping (address => string) private creatorToBio;\n\t// mapping (address => string) private creatorToDisplayImage;\n\n\t//mapping (address => uint256) private donorToDonated;\t\n\n\tbytes32 public seedHash;\n\tuint256 private totalContracts;\n\tuint256 private totalCreators;\n\n\tstring private theme; //theme of the month\n\t\n\tfunction main () {\n\t\ttotalContracts = 0;\n\t\ttotalCreators = 0;\n\t\tseedHash = block.blockhash(block.number-1);\t\n\t}\n\n\t//Returns an array of contract addresses submitted by the creator. Takes the creator address as input.\n\tfunction getContractFromCreator (address creatorAddress) returns(address[]) {\n\t\taddress[] contractAddresses;\n\t\trequire((creatorAddressToCreator[creatorAddress]).hasContract);\n\t\tfor(uint i = 0; i < (creatorAddressToCreator[creatorAddress]).contractCount; i++){\n\t\t\tcontractAddresses.push((creatorAddressToCreator[creatorAddress]).contractAddr[i]);\n\t\t}\n\t\treturn(contractAddresses);\t\n\t}\n\n\t//Creators will use this function to submit their contracts. Will exit if the contract creator field is not the message sender\n\t//Sender is the creator in this case\n\t//Input is user contract address he/she wishes to submit and the IPFS hash of the uploaded source code of that contract\n\tfunction submitContract (address contractAddress, string ipfsHashSrc, string ipfsHashAbi) {\n\t\tExampleERC721 submission;\n\t\tsubmission = ExampleERC721(contractAddress);\n\t\taddress creatorAddress = submission.getCreatorAddress();\n\t\trequire(creatorAddress == msg.sender);\n\n\t\tif(!(creatorAddressToCreator[creatorAddress].hasContract)){\n\t\t\t(creatorAddressToCreator[creatorAddress]).walletAddr = creatorAddress;\n\t\t\t(creatorAddressToCreator[creatorAddress]).contractAddr.push(contractAddress);\n\t\t\t(creatorAddressToCreator[creatorAddress]).src.push(ipfsHashSrc);\n\t\t\t(creatorAddressToCreator[creatorAddress]).abi.push(ipfsHashAbi);\n\t\t\t(creatorAddressToCreator[creatorAddress]).hasContract = true;\n\t\t\t(creatorAddressToCreator[creatorAddress]).contractCount ++;\n\t\t\ttotalCreators ++;\n\t\t\tcontractAddressToCreator[contractAddress] = creatorAddressToCreator[creatorAddress];\n\t\t\tcontractAddressToSrc[contractAddress] = ipfsHashSrc;\n\t\t\tcontractAddressToAbi[contractAddress] = ipfsHashAbi;\n\t\t}\n\t\telse{\n\t\t\t(creatorAddressToCreator[creatorAddress]).contractAddr.push(contractAddress);\n\t\t\t(creatorAddressToCreator[creatorAddress]).src.push(ipfsHashSrc);\n\t\t\t(creatorAddressToCreator[creatorAddress]).abi.push(ipfsHashAbi);\n\t\t\t(creatorAddressToCreator[creatorAddress]).contractCount ++;\n\t\t\tcontractAddressToCreator[contractAddress] = creatorAddressToCreator[creatorAddress];\n\t\t\tcontractAddressToSrc[contractAddress] = ipfsHashSrc;\n\t\t\tcontractAddressToAbi[contractAddress] = ipfsHashAbi;\n\t\t}\n\t\ttotalContracts ++;\n\n\t}\n\n\t//Returns one of either name, bio or display image URL depending on the field parameter\n\t//Commented because EVM cannot return dynamically sized items\n\n\t// function getCreatorInfoFromAddress (address creator, string field) returns(bytes32) { \n\t// \trequire(creatorToContract[creator] != 0); //Check if the creator has a contract stored in the mapping\n\t// \trequire(keccak256(field) != keccak256(\"\"));\n\t// \taddress _cAddr = creatorToContract[creator];\n\t// \tExampleERC721 _c;\n\t// \t_c = ExampleERC721(_cAddr);\n\n\t// \tif((keccak256(field) == keccak256(\"name\"))||(keccak256(field) == keccak256(\"Name\"))){\n\t// \t\treturn(_c.getCreatorName());\n\t// \t}\n\t// \telse if((keccak256(field) == keccak256(\"bio\"))||(keccak256(field) == keccak256(\"Bio\"))){\n\t// \t\treturn(_c.getCreatorBio());\n\t// \t}\n\t// \telse if((keccak256(field) == keccak256(\"displayImage\"))||(keccak256(field) == keccak256(\"DisplayImage\"))){\n\t// \t\treturn(_c.getCreatorDisplayImage());\n\t// \t}\n\t// \telse{\n\t// \t\treturn(\"\");\n\t// \t}\t\n\t// }\n\n\t//Returns n number of random contract addresses in an array. It will not return two contracts from the same creator. Pass in n as an input. \n\t//WARNING: ONLY WORKS PROPERLY ONCE RIGHT NOW\n\tfunction getRandomContractAddress(uint256 n) returns(address[]) {\n\t\tuint256 neededCount;\n\t\tuint256 generatedCount = 0;\n\t\tuint256 random;\n\t\taddress iterationAddress;\n\t\taddress[] randomAddresses;\n\n\t\tif(totalCreators>=n){\n\t\t\tneededCount = n;\n\t\t\twhile(generatedCount < neededCount){\n\t\t\t\trandom = rand(0,totalCreators-1);\n\t\t\t\tCreator iterationCreator = creators[n];\n\t\t\t\trandom = rand(0,iterationCreator.contractCount);\n\t\t\t\tif(creatorAddressToIncludedFlag[iterationCreator.walletAddr] == false){\n\t\t\t\t\tif(iterationCreator.hasContract){\n\t\t\t\t\t\trandomAddresses.push(iterationCreator.contractAddr[random]);\n\t\t\t\t\t\tgeneratedCount++;\n\t\t\t\t\t\tcreatorAddressToIncludedFlag[iterationCreator.walletAddr] = true;\n\t\t\t\t\t}\n\t\t\t\t}\n\t\t\t}\n\t\t}\n\t\telse{\n\t\t\tneededCount = totalCreators;\n\t\t\tfor(uint i = 0; i < neededCount; i++){\n\t\t\t\titerationCreator = creators[i];\n\t\t\t\tif(iterationCreator.hasContract){\n\t\t\t\t\trandom = rand(0,iterationCreator.contractCount);\n\t\t\t\t\trandomAddresses.push(iterationCreator.contractAddr[random]);\n\t\t\t\t}\n\t\t\t}\n\t\t}\n\t\treturn(randomAddresses);\n\t\t//TODO: SET ALL INCLUDE FLAGS TO FALSE\n\t}\n\n\t//Returns a string containing the IPFS hash of the source code of a contract. Pass the contract address you want to query the source code of.\n\tfunction getSourceHashFromContract (address contractAddr) returns(string) {\n\t\trequire(contractAddressToCreator[contractAddr].hasContract);\n\t\treturn(contractAddressToSrc[contractAddr]);\n\t}\n\n\tfunction getAbiHashFromContract (address contractAddr) returns(string) {\n\t\trequire(contractAddressToCreator[contractAddr].hasContract);\n\t\treturn(contractAddressToAbi[contractAddr]);\n\t}\n\t\n\n\n\t//Generate a random uint256 within the range [lowerBound,upperBound]\n\tfunction rand(uint256 lowerBound, uint256 upperBound) private returns (uint256){\n\t\tuint256 seedInt = uint(seedHash)/2;\n\t\tseedInt += now;\n\t\treturn(uint(sha256(seedInt))%(upperBound-lowerBound)+lowerBound+1);\n\t}\n\n}\n\n/**\n * The ExampleERC721 abstract contract\n */\ncontract ExampleERC721 {\n\tfunction getCreatorAddress() returns(address);\n\tfunction getCreatorName() returns(bytes32);\n\tfunction getCreatorBio() returns(bytes32);\n\tfunction getCreatorDisplayImage() returns(bytes32);\n}\n",
  "sourcePath": "/home/linkuri267/Documents/wtc/gratus/contracts/main.sol",
  "compiler": {
    "name": "solc",
    "version": "0.4.19+commit.c4cbbb05.Emscripten.clang"
  },
  "schemaVersion": "1.0.1",
  "updatedAt": "2018-02-18T13:15:56.982Z"
}