{
  "contractName": "main",
  "abi": [
    {
      "inputs": [],
      "payable": false,
      "stateMutability": "nonpayable",
      "type": "constructor"
    },
    {
      "constant": false,
      "inputs": [
        {
          "name": "creatorAddress",
          "type": "address"
        }
      ],
      "name": "getContractFromCreator",
      "outputs": [
        {
          "name": "",
          "type": "address"
        }
      ],
      "payable": false,
      "stateMutability": "nonpayable",
      "type": "function"
    },
    {
      "constant": false,
      "inputs": [
        {
          "name": "contractAddress",
          "type": "address"
        }
      ],
      "name": "submitContract",
      "outputs": [],
      "payable": false,
      "stateMutability": "nonpayable",
      "type": "function"
    },
    {
      "constant": false,
      "inputs": [
        {
          "name": "creator",
          "type": "address"
        },
        {
          "name": "field",
          "type": "string"
        }
      ],
      "name": "getCreatorInfoFromAddress",
      "outputs": [
        {
          "name": "",
          "type": "bytes32"
        }
      ],
      "payable": false,
      "stateMutability": "nonpayable",
      "type": "function"
    }
  ],
  "bytecode": "0x6060604052341561000f57600080fd5b610aa18061001e6000396000f300606060405260043610610057576000357c0100000000000000000000000000000000000000000000000000000000900463ffffffff168063487185161461005c5780634d700434146100d5578063c5a42fee1461016d575b600080fd5b341561006757600080fd5b610093600480803573ffffffffffffffffffffffffffffffffffffffff169060200190919050506101a6565b604051808273ffffffffffffffffffffffffffffffffffffffff1673ffffffffffffffffffffffffffffffffffffffff16815260200191505060405180910390f35b34156100e057600080fd5b61014f600480803573ffffffffffffffffffffffffffffffffffffffff1690602001909190803590602001908201803590602001908080601f0160208091040260200160405190810160405280939291908181526020018383808284378201915050505050509190505061020e565b60405180826000191660001916815260200191505060405180910390f35b341561017857600080fd5b6101a4600480803573ffffffffffffffffffffffffffffffffffffffff1690602001909190505061092a565b005b60008060008373ffffffffffffffffffffffffffffffffffffffff1673ffffffffffffffffffffffffffffffffffffffff16815260200190815260200160002060009054906101000a900473ffffffffffffffffffffffffffffffffffffffff169050919050565b6000806000806000808773ffffffffffffffffffffffffffffffffffffffff1673ffffffffffffffffffffffffffffffffffffffff16815260200190815260200160002060009054906101000a900473ffffffffffffffffffffffffffffffffffffffff1673ffffffffffffffffffffffffffffffffffffffff161415151561029657600080fd5b604051806000019050604051809103902060001916846040518082805190602001908083835b6020831015156102e157805182526020820191506020810190506020830392506102bc565b6001836020036101000a0380198251168184511680821785525050505050509050019150506040518091039020600019161415151561031f57600080fd5b6000808673ffffffffffffffffffffffffffffffffffffffff1673ffffffffffffffffffffffffffffffffffffffff16815260200190815260200160002060009054906101000a900473ffffffffffffffffffffffffffffffffffffffff16915081905060405180807f6e616d65000000000000000000000000000000000000000000000000000000008152506004019050604051809103902060001916846040518082805190602001908083835b6020831015156103f357805182526020820191506020810190506020830392506103ce565b6001836020036101000a03801982511681845116808217855250505050505090500191505060405180910390206000191614806104ce575060405180807f4e616d65000000000000000000000000000000000000000000000000000000008152506004019050604051809103902060001916846040518082805190602001908083835b60208310151561049b5780518252602082019150602081019050602083039250610476565b6001836020036101000a038019825116818451168082178552505050505050905001915050604051809103902060001916145b15610561578073ffffffffffffffffffffffffffffffffffffffff16637a51c3cd6000604051602001526040518163ffffffff167c0100000000000000000000000000000000000000000000000000000000028152600401602060405180830381600087803b151561053f57600080fd5b6102c65a03f1151561055057600080fd5b505050604051805190509250610922565b60405180807f62696f00000000000000000000000000000000000000000000000000000000008152506003019050604051809103902060001916846040518082805190602001908083835b6020831015156105d157805182526020820191506020810190506020830392506105ac565b6001836020036101000a03801982511681845116808217855250505050505090500191505060405180910390206000191614806106ac575060405180807f42696f00000000000000000000000000000000000000000000000000000000008152506003019050604051809103902060001916846040518082805190602001908083835b6020831015156106795780518252602082019150602081019050602083039250610654565b6001836020036101000a038019825116818451168082178552505050505050905001915050604051809103902060001916145b1561073f578073ffffffffffffffffffffffffffffffffffffffff16632490c1de6000604051602001526040518163ffffffff167c0100000000000000000000000000000000000000000000000000000000028152600401602060405180830381600087803b151561071d57600080fd5b6102c65a03f1151561072e57600080fd5b505050604051805190509250610922565b60405180807f646973706c6179496d6167650000000000000000000000000000000000000000815250600c019050604051809103902060001916846040518082805190602001908083835b6020831015156107af578051825260208201915060208101905060208303925061078a565b6001836020036101000a038019825116818451168082178552505050505050905001915050604051809103902060001916148061088a575060405180807f446973706c6179496d6167650000000000000000000000000000000000000000815250600c019050604051809103902060001916846040518082805190602001908083835b6020831015156108575780518252602082019150602081019050602083039250610832565b6001836020036101000a038019825116818451168082178552505050505050905001915050604051809103902060001916145b1561091d578073ffffffffffffffffffffffffffffffffffffffff16636ddcbb846000604051602001526040518163ffffffff167c0100000000000000000000000000000000000000000000000000000000028152600401602060405180830381600087803b15156108fb57600080fd5b6102c65a03f1151561090c57600080fd5b505050604051805190509250610922565b600092505b505092915050565b6000808291508173ffffffffffffffffffffffffffffffffffffffff166394d2d7a76000604051602001526040518163ffffffff167c0100000000000000000000000000000000000000000000000000000000028152600401602060405180830381600087803b151561099c57600080fd5b6102c65a03f115156109ad57600080fd5b5050506040518051905090503373ffffffffffffffffffffffffffffffffffffffff168173ffffffffffffffffffffffffffffffffffffffff161415156109f357600080fd5b826000803373ffffffffffffffffffffffffffffffffffffffff1673ffffffffffffffffffffffffffffffffffffffff16815260200190815260200160002060006101000a81548173ffffffffffffffffffffffffffffffffffffffff021916908373ffffffffffffffffffffffffffffffffffffffff1602179055505050505600a165627a7a723058200c6e829a89605dd961642b2f01fe863bdb2f7e99eab1699212d6abd5174a9f700029",
  "source": "pragma solidity ^0.4.17;\n\n/**\n * The main contract does this and that...\n */\ncontract main {\n\tmapping (address => address) private creatorToContract;\n\t// mapping (address => string) private creatorToName;\n\t// mapping (address => string) private creatorToBio;\n\t// mapping (address => string) private creatorToDisplayImage;\n\n\tmapping (address => uint256) private donorToDonated;\n\n\tstring private theme; //theme of the month\n\t\n\tfunction main () {\n\t\t\n\t}\n\n\tfunction getContractFromCreator (address creatorAddress) returns(address) {\n\t\treturn(creatorToContract[creatorAddress]);\t\t\n\t}\n\n\t//Creators will use this function to submit their contracts. Will exit if the contract creator field is not the message sender\n\tfunction submitContract (address contractAddress) {\n\t\tExampleERC721 submission;\n\t\tsubmission = ExampleERC721(contractAddress);\n\t\taddress creatorAddress = submission.getCreatorAddress();\n\t\trequire(creatorAddress == msg.sender);\n\t\tcreatorToContract[msg.sender] = contractAddress;\n\t}\n\n\t//Returns one of either name, bio or display image URL depending on the field parameter\n\tfunction getCreatorInfoFromAddress (address creator, string field) returns(bytes32) {\n\t\trequire(creatorToContract[creator] != 0); //Check if the creator has a contract stored in the mapping\n\t\trequire(keccak256(field) != keccak256(\"\"));\n\t\taddress _cAddr = creatorToContract[creator];\n\t\tExampleERC721 _c;\n\t\t_c = ExampleERC721(_cAddr);\n\n\t\tif((keccak256(field) == keccak256(\"name\"))||(keccak256(field) == keccak256(\"Name\"))){\n\t\t\treturn(_c.getCreatorName());\n\t\t}\n\t\telse if((keccak256(field) == keccak256(\"bio\"))||(keccak256(field) == keccak256(\"Bio\"))){\n\t\t\treturn(_c.getCreatorBio());\n\t\t}\n\t\telse if((keccak256(field) == keccak256(\"displayImage\"))||(keccak256(field) == keccak256(\"DisplayImage\"))){\n\t\t\treturn(_c.getCreatorDisplayImage());\n\t\t}\n\t\telse{\n\t\t\treturn(\"\");\n\t\t}\n\t}\t\t\n}\n\n/**\n * The ExampleERC721 abstract contract\n */\ncontract ExampleERC721 {\n\tfunction getCreatorAddress() returns(address);\n\tfunction getCreatorName() returns(bytes32);\n\tfunction getCreatorBio() returns(bytes32);\n\tfunction getCreatorDisplayImage() returns(bytes32);\n\t\n}\n",
  "sourcePath": "/home/linkuri267/Documents/wtc/gratus/contracts/main.sol",
  "compiler": {
    "name": "solc",
    "version": "0.4.19+commit.c4cbbb05.Emscripten.clang"
  },
  "schemaVersion": "1.0.1",
  "updatedAt": "2018-02-18T01:28:49.617Z"
}