{
  "contractName": "main",
  "abi": [
    {
      "constant": true,
      "inputs": [
        {
          "name": "",
          "type": "uint256"
        }
      ],
      "name": "donors",
      "outputs": [
        {
          "name": "walletAddr",
          "type": "address"
        },
        {
          "name": "amountDonated",
          "type": "uint256"
        }
      ],
      "payable": false,
      "stateMutability": "view",
      "type": "function"
    },
    {
      "constant": true,
      "inputs": [],
      "name": "seedHash",
      "outputs": [
        {
          "name": "",
          "type": "bytes32"
        }
      ],
      "payable": false,
      "stateMutability": "view",
      "type": "function"
    },
    {
      "constant": true,
      "inputs": [
        {
          "name": "",
          "type": "uint256"
        }
      ],
      "name": "creators",
      "outputs": [
        {
          "name": "walletAddr",
          "type": "address"
        },
        {
          "name": "hasContract",
          "type": "bool"
        },
        {
          "name": "contractCount",
          "type": "uint256"
        }
      ],
      "payable": false,
      "stateMutability": "view",
      "type": "function"
    },
    {
      "inputs": [],
      "payable": false,
      "stateMutability": "nonpayable",
      "type": "constructor"
    },
    {
      "constant": false,
      "inputs": [
        {
          "name": "creatorAddress",
          "type": "address"
        }
      ],
      "name": "getContractFromCreator",
      "outputs": [
        {
          "name": "",
          "type": "address[]"
        }
      ],
      "payable": false,
      "stateMutability": "nonpayable",
      "type": "function"
    },
    {
      "constant": false,
      "inputs": [
        {
          "name": "contractAddress",
          "type": "address"
        },
        {
          "name": "ipfsHash",
          "type": "string"
        }
      ],
      "name": "submitContract",
      "outputs": [],
      "payable": false,
      "stateMutability": "nonpayable",
      "type": "function"
    },
    {
      "constant": false,
      "inputs": [
        {
          "name": "n",
          "type": "uint256"
        }
      ],
      "name": "getRandomContractAddress",
      "outputs": [
        {
          "name": "",
          "type": "address[]"
        }
      ],
      "payable": false,
      "stateMutability": "nonpayable",
      "type": "function"
    },
    {
      "constant": false,
      "inputs": [
        {
          "name": "contractAddr",
          "type": "address"
        }
      ],
      "name": "getAbiHashFromContract",
      "outputs": [
        {
          "name": "",
          "type": "string"
        }
      ],
      "payable": false,
      "stateMutability": "nonpayable",
      "type": "function"
    }
  ],
  "bytecode": "0x6060604052341561000f57600080fd5b6000600681905550600060078190555060014303406005816000191690555061186a8061003d6000396000f300606060405260043610610083576000357c0100000000000000000000000000000000000000000000000000000000900463ffffffff16806348718516146100885780634abfa1631461011657806367ad2cdd146101805780637c0bc41d146101fc578063c2b373a714610274578063cd53d08e146102a5578063ed119d711461031a575b600080fd5b341561009357600080fd5b6100bf600480803573ffffffffffffffffffffffffffffffffffffffff169060200190919050506103cc565b6040518080602001828103825283818151815260200191508051906020019060200280838360005b838110156101025780820151818401526020810190506100e7565b505050509050019250505060405180910390f35b341561012157600080fd5b61013760048080359060200190919050506105f9565b604051808373ffffffffffffffffffffffffffffffffffffffff1673ffffffffffffffffffffffffffffffffffffffff1681526020018281526020019250505060405180910390f35b341561018b57600080fd5b6101fa600480803573ffffffffffffffffffffffffffffffffffffffff1690602001909190803590602001908201803590602001908080601f0160208091040260200160405190810160405280939291908181526020018383808284378201915050505050509190505061064c565b005b341561020757600080fd5b61021d6004808035906020019091905050610df3565b6040518080602001828103825283818151815260200191508051906020019060200280838360005b83811015610260578082015181840152602081019050610245565b505050509050019250505060405180910390f35b341561027f57600080fd5b6102876111be565b60405180826000191660001916815260200191505060405180910390f35b34156102b057600080fd5b6102c660048080359060200190919050506111c4565b604051808473ffffffffffffffffffffffffffffffffffffffff1673ffffffffffffffffffffffffffffffffffffffff16815260200183151515158152602001828152602001935050505060405180910390f35b341561032557600080fd5b610351600480803573ffffffffffffffffffffffffffffffffffffffff1690602001909190505061122a565b6040518080602001828103825283818151815260200191508051906020019080838360005b83811015610391578082015181840152602081019050610376565b50505050905090810190601f1680156103be5780820380516001836020036101000a031916815260200191505b509250505060405180910390f35b6103d4611519565b600080600260008573ffffffffffffffffffffffffffffffffffffffff1673ffffffffffffffffffffffffffffffffffffffff16815260200190815260200160002060030160009054906101000a900460ff16151561043257600080fd5b600090505b600260008573ffffffffffffffffffffffffffffffffffffffff1673ffffffffffffffffffffffffffffffffffffffff1681526020019081526020016000206004015481101561056a57818054806001018281610494919061152d565b91600052602060002090016000600260008873ffffffffffffffffffffffffffffffffffffffff1673ffffffffffffffffffffffffffffffffffffffff168152602001908152602001600020600101848154811015156104f057fe5b906000526020600020900160009054906101000a900473ffffffffffffffffffffffffffffffffffffffff16909190916101000a81548173ffffffffffffffffffffffffffffffffffffffff021916908373ffffffffffffffffffffffffffffffffffffffff160217905550508080600101915050610437565b818054806020026020016040519081016040528092919081815260200182805480156105eb57602002820191906000526020600020905b8160009054906101000a900473ffffffffffffffffffffffffffffffffffffffff1673ffffffffffffffffffffffffffffffffffffffff16815260200190600101908083116105a1575b505050505092505050919050565b60018181548110151561060857fe5b90600052602060002090600202016000915090508060000160009054906101000a900473ffffffffffffffffffffffffffffffffffffffff16908060010154905082565b6000808391508173ffffffffffffffffffffffffffffffffffffffff166394d2d7a76000604051602001526040518163ffffffff167c0100000000000000000000000000000000000000000000000000000000028152600401602060405180830381600087803b15156106be57600080fd5b6102c65a03f115156106cf57600080fd5b5050506040518051905090503373ffffffffffffffffffffffffffffffffffffffff168173ffffffffffffffffffffffffffffffffffffffff1614151561071557600080fd5b600260008273ffffffffffffffffffffffffffffffffffffffff1673ffffffffffffffffffffffffffffffffffffffff16815260200190815260200160002060030160009054906101000a900460ff161515610b1c5780600260008373ffffffffffffffffffffffffffffffffffffffff1673ffffffffffffffffffffffffffffffffffffffff16815260200190815260200160002060000160006101000a81548173ffffffffffffffffffffffffffffffffffffffff021916908373ffffffffffffffffffffffffffffffffffffffff160217905550600260008273ffffffffffffffffffffffffffffffffffffffff1673ffffffffffffffffffffffffffffffffffffffff1681526020019081526020016000206001018054806001018281610840919061152d565b9160005260206000209001600086909190916101000a81548173ffffffffffffffffffffffffffffffffffffffff021916908373ffffffffffffffffffffffffffffffffffffffff16021790555050600260008273ffffffffffffffffffffffffffffffffffffffff1673ffffffffffffffffffffffffffffffffffffffff16815260200190815260200160002060020180548060010182816108e39190611559565b916000526020600020900160008590919091509080519060200190610909929190611585565b50506001600260008373ffffffffffffffffffffffffffffffffffffffff1673ffffffffffffffffffffffffffffffffffffffff16815260200190815260200160002060030160006101000a81548160ff021916908315150217905550600260008273ffffffffffffffffffffffffffffffffffffffff1673ffffffffffffffffffffffffffffffffffffffff16815260200190815260200160002060040160008154809291906001019190505550600760008154809291906001019190505550600260008273ffffffffffffffffffffffffffffffffffffffff1673ffffffffffffffffffffffffffffffffffffffff168152602001908152602001600020600360008673ffffffffffffffffffffffffffffffffffffffff1673ffffffffffffffffffffffffffffffffffffffff1681526020019081526020016000206000820160009054906101000a900473ffffffffffffffffffffffffffffffffffffffff168160000160006101000a81548173ffffffffffffffffffffffffffffffffffffffff021916908373ffffffffffffffffffffffffffffffffffffffff1602179055506001820181600101908054610ac5929190611605565b506002820181600201908054610adc929190611657565b506003820160009054906101000a900460ff168160030160006101000a81548160ff02191690831515021790555060048201548160040155905050610ddb565b600260008273ffffffffffffffffffffffffffffffffffffffff1673ffffffffffffffffffffffffffffffffffffffff1681526020019081526020016000206001018054806001018281610b70919061152d565b9160005260206000209001600086909190916101000a81548173ffffffffffffffffffffffffffffffffffffffff021916908373ffffffffffffffffffffffffffffffffffffffff16021790555050600260008273ffffffffffffffffffffffffffffffffffffffff1673ffffffffffffffffffffffffffffffffffffffff1681526020019081526020016000206002018054806001018281610c139190611559565b916000526020600020900160008590919091509080519060200190610c39929190611585565b5050600260008273ffffffffffffffffffffffffffffffffffffffff1673ffffffffffffffffffffffffffffffffffffffff16815260200190815260200160002060040160008154809291906001019190505550600260008273ffffffffffffffffffffffffffffffffffffffff1673ffffffffffffffffffffffffffffffffffffffff168152602001908152602001600020600360008673ffffffffffffffffffffffffffffffffffffffff1673ffffffffffffffffffffffffffffffffffffffff1681526020019081526020016000206000820160009054906101000a900473ffffffffffffffffffffffffffffffffffffffff168160000160006101000a81548173ffffffffffffffffffffffffffffffffffffffff021916908373ffffffffffffffffffffffffffffffffffffffff1602179055506001820181600101908054610d88929190611605565b506002820181600201908054610d9f929190611657565b506003820160009054906101000a900460ff168160030160006101000a81548160ff021916908315150217905550600482015481600401559050505b60066000815480929190600101919050555050505050565b610dfb611519565b600080600080600080600080955088600754101515611024578896505b8686101561101f57610e30600060016007540361149e565b9450600089815481101515610e4157fe5b90600052602060002090600502019150610e606000836004015461149e565b945060001515600460008460000160009054906101000a900473ffffffffffffffffffffffffffffffffffffffff1673ffffffffffffffffffffffffffffffffffffffff1673ffffffffffffffffffffffffffffffffffffffff16815260200190815260200160002060009054906101000a900460ff161515141561101a578160030160009054906101000a900460ff161561101957828054806001018281610f09919061152d565b916000526020600020900160008460010188815481101515610f2757fe5b906000526020600020900160009054906101000a900473ffffffffffffffffffffffffffffffffffffffff16909190916101000a81548173ffffffffffffffffffffffffffffffffffffffff021916908373ffffffffffffffffffffffffffffffffffffffff1602179055505085806001019650506001600460008460000160009054906101000a900473ffffffffffffffffffffffffffffffffffffffff1673ffffffffffffffffffffffffffffffffffffffff1673ffffffffffffffffffffffffffffffffffffffff16815260200190815260200160002060006101000a81548160ff0219169083151502179055505b5b610e18565b61112a565b6007549650600090505b868110156111295760008181548110151561104557fe5b906000526020600020906005020191508160030160009054906101000a900460ff161561111c5761107b6000836004015461149e565b9450828054806001018281611090919061152d565b9160005260206000209001600084600101888154811015156110ae57fe5b906000526020600020900160009054906101000a900473ffffffffffffffffffffffffffffffffffffffff16909190916101000a81548173ffffffffffffffffffffffffffffffffffffffff021916908373ffffffffffffffffffffffffffffffffffffffff160217905550505b808060010191505061102e565b5b828054806020026020016040519081016040528092919081815260200182805480156111ab57602002820191906000526020600020905b8160009054906101000a900473ffffffffffffffffffffffffffffffffffffffff1673ffffffffffffffffffffffffffffffffffffffff1681526020019060010190808311611161575b5050505050975050505050505050919050565b60055481565b6000818154811015156111d357fe5b90600052602060002090600502016000915090508060000160009054906101000a900473ffffffffffffffffffffffffffffffffffffffff16908060030160009054906101000a900460ff16908060040154905083565b6112326116c7565b600080600360008573ffffffffffffffffffffffffffffffffffffffff1673ffffffffffffffffffffffffffffffffffffffff16815260200190815260200160002060030160009054906101000a900460ff16151561129057600080fd5b60009150600090505b600360008573ffffffffffffffffffffffffffffffffffffffff1673ffffffffffffffffffffffffffffffffffffffff168152602001908152602001600020600401548110156113a2578373ffffffffffffffffffffffffffffffffffffffff16600360008673ffffffffffffffffffffffffffffffffffffffff1673ffffffffffffffffffffffffffffffffffffffff1681526020019081526020016000206001018281548110151561134957fe5b906000526020600020900160009054906101000a900473ffffffffffffffffffffffffffffffffffffffff1673ffffffffffffffffffffffffffffffffffffffff161415611395578091505b8080600101915050611299565b600360008573ffffffffffffffffffffffffffffffffffffffff1673ffffffffffffffffffffffffffffffffffffffff168152602001908152602001600020600201828154811015156113f157fe5b90600052602060002090018054600181600116156101000203166002900480601f0160208091040260200160405190810160405280929190818152602001828054600181600116156101000203166002900480156114905780601f1061146557610100808354040283529160200191611490565b820191906000526020600020905b81548152906001019060200180831161147357829003601f168201915b505050505092505050919050565b6000806002600554600190048115156114b357fe5b04905042810190506001848585036002846000604051602001526040518082815260200191505060206040518083038160008661646e5a03f115156114f757600080fd5b5050604051805190506001900481151561150d57fe5b06010191505092915050565b602060405190810160405280600081525090565b8154818355818115116115545781836000526020600020918201910161155391906116db565b5b505050565b8154818355818115116115805781836000526020600020918201910161157f9190611700565b5b505050565b828054600181600116156101000203166002900490600052602060002090601f016020900481019282601f106115c657805160ff19168380011785556115f4565b828001600101855582156115f4579182015b828111156115f35782518255916020019190600101906115d8565b5b50905061160191906116db565b5090565b8280548282559060005260206000209081019282156116465760005260206000209182015b8281111561164557825482559160010191906001019061162a565b5b509050611653919061172c565b5090565b8280548282559060005260206000209081019282156116b65760005260206000209182015b828111156116b557828290805460018160011615610100020316600290046116a592919061176f565b509160010191906001019061167c565b5b5090506116c39190611700565b5090565b602060405190810160405280600081525090565b6116fd91905b808211156116f95760008160009055506001016116e1565b5090565b90565b61172991905b80821115611725576000818161171c91906117f6565b50600101611706565b5090565b90565b61176c91905b8082111561176857600081816101000a81549073ffffffffffffffffffffffffffffffffffffffff021916905550600101611732565b5090565b90565b828054600181600116156101000203166002900490600052602060002090601f016020900481019282601f106117a857805485556117e5565b828001600101855582156117e557600052602060002091601f016020900482015b828111156117e45782548255916001019190600101906117c9565b5b5090506117f291906116db565b5090565b50805460018160011615610100020316600290046000825580601f1061181c575061183b565b601f01602090049060005260206000209081019061183a91906116db565b5b505600a165627a7a7230582005dea36a0fa15415931df4fe6e288c831fac8371e1a8a4d6adde5049791022150029",
  "source": "pragma solidity ^0.4.17;\n\n/**\n * The main contract does this and that...\n */\ncontract main {\n\n\tstruct Creator{\n\t\taddress walletAddr;\n\t\taddress[] contractAddr; //Addresses of contracts created by this creator\n\t\tstring[] src; //IPFS addresses for contract source codes\n\t\tbool hasContract;\n\t\tuint256 contractCount; //Number of contracts created by this creator\n\t}\n\n\tstruct Donor {\n\t\taddress walletAddr;\n\t\tuint amountDonated;\n\t}\n\n\tCreator[] public creators; //array of all creators \n\tDonor[] public donors; //array of all donors\n\t\n\n\tmapping (address => Creator) creatorAddressToCreator;\n\tmapping (address => Creator) contractAddressToCreator;\n\n\tmapping (address => bool) creatorAddressToIncludedFlag; //Flags for preventing duplicate random addresses \n\t\n\t// mapping (address => address) private creatorToContract;\n\t// mapping (address => string) private creatorToSrc;\n\t\n\t// mapping (address => string) private creatorToName;\n\t// mapping (address => string) private creatorToBio;\n\t// mapping (address => string) private creatorToDisplayImage;\n\n\t//mapping (address => uint256) private donorToDonated;\t\n\n\tbytes32 public seedHash;\n\tuint256 private totalContracts;\n\tuint256 private totalCreators;\n\n\tstring private theme; //theme of the month\n\t\n\tfunction main () {\n\t\ttotalContracts = 0;\n\t\ttotalCreators = 0;\n\t\tseedHash = block.blockhash(block.number-1);\t\n\t}\n\n\t//Returns an array of contract addresses submitted by the creator. Takes the creator address as input.\n\tfunction getContractFromCreator (address creatorAddress) returns(address[]) {\n\t\taddress[] contractAddresses;\n\t\trequire((creatorAddressToCreator[creatorAddress]).hasContract);\n\t\tfor(uint i = 0; i < (creatorAddressToCreator[creatorAddress]).contractCount; i++){\n\t\t\tcontractAddresses.push((creatorAddressToCreator[creatorAddress]).contractAddr[i]);\n\t\t}\n\t\treturn(contractAddresses);\t\n\t}\n\n\t//Creators will use this function to submit their contracts. Will exit if the contract creator field is not the message sender\n\t//Sender is the creator in this case\n\tfunction submitContract (address contractAddress, string ipfsHash) {\n\t\tExampleERC721 submission;\n\t\tsubmission = ExampleERC721(contractAddress);\n\t\taddress creatorAddress = submission.getCreatorAddress();\n\t\trequire(creatorAddress == msg.sender);\n\n\t\tif(!(creatorAddressToCreator[creatorAddress].hasContract)){\n\t\t\t(creatorAddressToCreator[creatorAddress]).walletAddr = creatorAddress;\n\t\t\t(creatorAddressToCreator[creatorAddress]).contractAddr.push(contractAddress);\n\t\t\t(creatorAddressToCreator[creatorAddress]).src.push(ipfsHash);\n\t\t\t(creatorAddressToCreator[creatorAddress]).hasContract = true;\n\t\t\t(creatorAddressToCreator[creatorAddress]).contractCount ++;\n\t\t\ttotalCreators ++;\n\t\t\tcontractAddressToCreator[contractAddress] = creatorAddressToCreator[creatorAddress];\n\t\t}\n\t\telse{\n\t\t\t(creatorAddressToCreator[creatorAddress]).contractAddr.push(contractAddress);\n\t\t\t(creatorAddressToCreator[creatorAddress]).src.push(ipfsHash);\n\t\t\t(creatorAddressToCreator[creatorAddress]).contractCount ++;\n\t\t\tcontractAddressToCreator[contractAddress] = creatorAddressToCreator[creatorAddress];\n\t\t}\n\t\ttotalContracts ++;\n\n\t}\n\n\t//Returns one of either name, bio or display image URL depending on the field parameter\n\t//Commented because EVM cannot return dynamically sized items\n\n\t// function getCreatorInfoFromAddress (address creator, string field) returns(bytes32) { \n\t// \trequire(creatorToContract[creator] != 0); //Check if the creator has a contract stored in the mapping\n\t// \trequire(keccak256(field) != keccak256(\"\"));\n\t// \taddress _cAddr = creatorToContract[creator];\n\t// \tExampleERC721 _c;\n\t// \t_c = ExampleERC721(_cAddr);\n\n\t// \tif((keccak256(field) == keccak256(\"name\"))||(keccak256(field) == keccak256(\"Name\"))){\n\t// \t\treturn(_c.getCreatorName());\n\t// \t}\n\t// \telse if((keccak256(field) == keccak256(\"bio\"))||(keccak256(field) == keccak256(\"Bio\"))){\n\t// \t\treturn(_c.getCreatorBio());\n\t// \t}\n\t// \telse if((keccak256(field) == keccak256(\"displayImage\"))||(keccak256(field) == keccak256(\"DisplayImage\"))){\n\t// \t\treturn(_c.getCreatorDisplayImage());\n\t// \t}\n\t// \telse{\n\t// \t\treturn(\"\");\n\t// \t}\t\n\t// }\n\n\t//Returns n number of random contract addresses in an array. It will not return two contracts from the same creator. Pass in n as an input. \n\tfunction getRandomContractAddress(uint256 n) returns(address[]) {\n\t\tuint256 neededCount;\n\t\tuint256 generatedCount = 0;\n\t\tuint256 random;\n\t\taddress iterationAddress;\n\t\taddress[] randomAddresses;\n\n\t\tif(totalCreators>=n){\n\t\t\tneededCount = n;\n\t\t\twhile(generatedCount < neededCount){\n\t\t\t\trandom = rand(0,totalCreators-1);\n\t\t\t\tCreator iterationCreator = creators[n];\n\t\t\t\trandom = rand(0,iterationCreator.contractCount);\n\t\t\t\tif(creatorAddressToIncludedFlag[iterationCreator.walletAddr] == false){\n\t\t\t\t\tif(iterationCreator.hasContract){\n\t\t\t\t\t\trandomAddresses.push(iterationCreator.contractAddr[random]);\n\t\t\t\t\t\tgeneratedCount++;\n\t\t\t\t\t\tcreatorAddressToIncludedFlag[iterationCreator.walletAddr] = true;\n\t\t\t\t\t}\n\t\t\t\t}\n\t\t\t}\n\t\t}\n\t\telse{\n\t\t\tneededCount = totalCreators;\n\t\t\tfor(uint i = 0; i < neededCount; i++){\n\t\t\t\titerationCreator = creators[i];\n\t\t\t\tif(iterationCreator.hasContract){\n\t\t\t\t\trandom = rand(0,iterationCreator.contractCount);\n\t\t\t\t\trandomAddresses.push(iterationCreator.contractAddr[random]);\n\t\t\t\t}\n\t\t\t}\n\t\t}\n\t\treturn(randomAddresses);\n\t\t//TODO: SET ALL INCLUDE FLAGS TO FALSE\n\t}\n\n\t//Returns a string containing the IPFS hash of the  ABI data of a contract. Pass the contract address you want to query the ABI of.\n\tfunction getAbiHashFromContract (address contractAddr) returns(string) {\n\t\trequire(contractAddressToCreator[contractAddr].hasContract);\n\t\tuint contractIndex = 0;\n\t\tfor(uint i = 0; i < contractAddressToCreator[contractAddr].contractCount; i++){\n\t\t\tif(contractAddressToCreator[contractAddr].contractAddr[i] == contractAddr){\n\t\t\t\tcontractIndex = i;\n\t\t\t}\n\t\t}\n\t\treturn(contractAddressToCreator[contractAddr].src[contractIndex]);\n\t}\n\n\n\t//Generate a random uint256 within the range [lowerBound,upperBound]\n\tfunction rand(uint256 lowerBound, uint256 upperBound) private returns (uint256){\n\t\tuint256 seedInt = uint(seedHash)/2;\n\t\tseedInt += now;\n\t\treturn(uint(sha256(seedInt))%(upperBound-lowerBound)+lowerBound+1);\n\t}\n\n}\n\n/**\n * The ExampleERC721 abstract contract\n */\ncontract ExampleERC721 {\n\tfunction getCreatorAddress() returns(address);\n\tfunction getCreatorName() returns(bytes32);\n\tfunction getCreatorBio() returns(bytes32);\n\tfunction getCreatorDisplayImage() returns(bytes32);\n}\n",
  "sourcePath": "/home/linkuri267/Documents/wtc/gratus/contracts/main.sol",
  "compiler": {
    "name": "solc",
    "version": "0.4.19+commit.c4cbbb05.Emscripten.clang"
  },
  "schemaVersion": "1.0.1",
  "updatedAt": "2018-02-18T12:17:25.002Z"
}